{"abi":[{"inputs":[{"internalType":"uint256","name":"minimum","type":"uint256"},{"internalType":"address","name":"creator","type":"address"}],"stateMutability":"nonpayable","type":"constructor"},{"inputs":[{"internalType":"uint256","name":"index","type":"uint256"}],"name":"approveRequest","outputs":[],"stateMutability":"nonpayable","type":"function"},{"inputs":[{"internalType":"address","name":"","type":"address"}],"name":"approvers","outputs":[{"internalType":"bool","name":"","type":"bool"}],"stateMutability":"view","type":"function"},{"inputs":[],"name":"contribute","outputs":[],"stateMutability":"payable","type":"function"},{"inputs":[{"internalType":"string","name":"description","type":"string"},{"internalType":"uint256","name":"value","type":"uint256"},{"internalType":"address payable","name":"recipient","type":"address"}],"name":"createRequest","outputs":[],"stateMutability":"nonpayable","type":"function"},{"inputs":[{"internalType":"uint256","name":"index","type":"uint256"}],"name":"finalizeRequest","outputs":[],"stateMutability":"nonpayable","type":"function"},{"inputs":[],"name":"manager","outputs":[{"internalType":"address","name":"","type":"address"}],"stateMutability":"view","type":"function"},{"inputs":[],"name":"minimumContribution","outputs":[{"internalType":"uint256","name":"","type":"uint256"}],"stateMutability":"view","type":"function"}],"devdoc":{"kind":"dev","methods":{},"version":1},"evm":{"assembly":"    /* \"Campaign.sol\":439:2258  contract Campaign {... */\n  mstore(0x40, 0x80)\n    /* \"Campaign.sol\":992:1108  constructor(uint minimum, address creator) {... */\n  callvalue\n  dup1\n  iszero\n  tag_1\n  jumpi\n  0x00\n  dup1\n  revert\ntag_1:\n  pop\n  mload(0x40)\n  sub(codesize, bytecodeSize)\n  dup1\n  bytecodeSize\n  dup4\n  codecopy\n  dup2\n  dup2\n  add\n  0x40\n  mstore\n  dup2\n  add\n  swap1\n  tag_2\n  swap2\n  swap1\n  tag_3\n  jump\t// in\ntag_2:\n    /* \"Campaign.sol\":1055:1062  creator */\n  dup1\n    /* \"Campaign.sol\":1046:1053  manager */\n  0x02\n  0x00\n    /* \"Campaign.sol\":1046:1062  manager= creator */\n  0x0100\n  exp\n  dup2\n  sload\n  dup2\n  0xffffffffffffffffffffffffffffffffffffffff\n  mul\n  not\n  and\n  swap1\n  dup4\n  0xffffffffffffffffffffffffffffffffffffffff\n  and\n  mul\n  or\n  swap1\n  sstore\n  pop\n    /* \"Campaign.sol\":1093:1100  minimum */\n  dup2\n    /* \"Campaign.sol\":1073:1092  minimumContribution */\n  0x03\n    /* \"Campaign.sol\":1073:1100  minimumContribution=minimum */\n  dup2\n  swap1\n  sstore\n  pop\n    /* \"Campaign.sol\":992:1108  constructor(uint minimum, address creator) {... */\n  pop\n  pop\n    /* \"Campaign.sol\":439:2258  contract Campaign {... */\n  jump(tag_6)\n    /* \"#utility.yul\":88:205   */\ntag_8:\n    /* \"#utility.yul\":197:198   */\n  0x00\n    /* \"#utility.yul\":194:195   */\n  dup1\n    /* \"#utility.yul\":187:199   */\n  revert\n    /* \"#utility.yul\":334:411   */\ntag_10:\n    /* \"#utility.yul\":371:378   */\n  0x00\n    /* \"#utility.yul\":400:405   */\n  dup2\n    /* \"#utility.yul\":389:405   */\n  swap1\n  pop\n    /* \"#utility.yul\":334:411   */\n  swap2\n  swap1\n  pop\n  jump\t// out\n    /* \"#utility.yul\":417:539   */\ntag_11:\n    /* \"#utility.yul\":490:514   */\n  tag_23\n    /* \"#utility.yul\":508:513   */\n  dup2\n    /* \"#utility.yul\":490:514   */\n  tag_10\n  jump\t// in\ntag_23:\n    /* \"#utility.yul\":483:488   */\n  dup2\n    /* \"#utility.yul\":480:515   */\n  eq\n    /* \"#utility.yul\":470:533   */\n  tag_24\n  jumpi\n    /* \"#utility.yul\":529:530   */\n  0x00\n    /* \"#utility.yul\":526:527   */\n  dup1\n    /* \"#utility.yul\":519:531   */\n  revert\n    /* \"#utility.yul\":470:533   */\ntag_24:\n    /* \"#utility.yul\":417:539   */\n  pop\n  jump\t// out\n    /* \"#utility.yul\":545:688   */\ntag_12:\n    /* \"#utility.yul\":602:607   */\n  0x00\n    /* \"#utility.yul\":633:639   */\n  dup2\n    /* \"#utility.yul\":627:640   */\n  mload\n    /* \"#utility.yul\":618:640   */\n  swap1\n  pop\n    /* \"#utility.yul\":649:682   */\n  tag_26\n    /* \"#utility.yul\":676:681   */\n  dup2\n    /* \"#utility.yul\":649:682   */\n  tag_11\n  jump\t// in\ntag_26:\n    /* \"#utility.yul\":545:688   */\n  swap3\n  swap2\n  pop\n  pop\n  jump\t// out\n    /* \"#utility.yul\":694:820   */\ntag_13:\n    /* \"#utility.yul\":731:738   */\n  0x00\n    /* \"#utility.yul\":771:813   */\n  0xffffffffffffffffffffffffffffffffffffffff\n    /* \"#utility.yul\":764:769   */\n  dup3\n    /* \"#utility.yul\":760:814   */\n  and\n    /* \"#utility.yul\":749:814   */\n  swap1\n  pop\n    /* \"#utility.yul\":694:820   */\n  swap2\n  swap1\n  pop\n  jump\t// out\n    /* \"#utility.yul\":826:922   */\ntag_14:\n    /* \"#utility.yul\":863:870   */\n  0x00\n    /* \"#utility.yul\":892:916   */\n  tag_29\n    /* \"#utility.yul\":910:915   */\n  dup3\n    /* \"#utility.yul\":892:916   */\n  tag_13\n  jump\t// in\ntag_29:\n    /* \"#utility.yul\":881:916   */\n  swap1\n  pop\n    /* \"#utility.yul\":826:922   */\n  swap2\n  swap1\n  pop\n  jump\t// out\n    /* \"#utility.yul\":928:1050   */\ntag_15:\n    /* \"#utility.yul\":1001:1025   */\n  tag_31\n    /* \"#utility.yul\":1019:1024   */\n  dup2\n    /* \"#utility.yul\":1001:1025   */\n  tag_14\n  jump\t// in\ntag_31:\n    /* \"#utility.yul\":994:999   */\n  dup2\n    /* \"#utility.yul\":991:1026   */\n  eq\n    /* \"#utility.yul\":981:1044   */\n  tag_32\n  jumpi\n    /* \"#utility.yul\":1040:1041   */\n  0x00\n    /* \"#utility.yul\":1037:1038   */\n  dup1\n    /* \"#utility.yul\":1030:1042   */\n  revert\n    /* \"#utility.yul\":981:1044   */\ntag_32:\n    /* \"#utility.yul\":928:1050   */\n  pop\n  jump\t// out\n    /* \"#utility.yul\":1056:1199   */\ntag_16:\n    /* \"#utility.yul\":1113:1118   */\n  0x00\n    /* \"#utility.yul\":1144:1150   */\n  dup2\n    /* \"#utility.yul\":1138:1151   */\n  mload\n    /* \"#utility.yul\":1129:1151   */\n  swap1\n  pop\n    /* \"#utility.yul\":1160:1193   */\n  tag_34\n    /* \"#utility.yul\":1187:1192   */\n  dup2\n    /* \"#utility.yul\":1160:1193   */\n  tag_15\n  jump\t// in\ntag_34:\n    /* \"#utility.yul\":1056:1199   */\n  swap3\n  swap2\n  pop\n  pop\n  jump\t// out\n    /* \"#utility.yul\":1205:1712   */\ntag_3:\n    /* \"#utility.yul\":1284:1290   */\n  0x00\n    /* \"#utility.yul\":1292:1298   */\n  dup1\n    /* \"#utility.yul\":1341:1343   */\n  0x40\n    /* \"#utility.yul\":1329:1338   */\n  dup4\n    /* \"#utility.yul\":1320:1327   */\n  dup6\n    /* \"#utility.yul\":1316:1339   */\n  sub\n    /* \"#utility.yul\":1312:1344   */\n  slt\n    /* \"#utility.yul\":1309:1428   */\n  iszero\n  tag_36\n  jumpi\n    /* \"#utility.yul\":1347:1426   */\n  tag_37\n  tag_8\n  jump\t// in\ntag_37:\n    /* \"#utility.yul\":1309:1428   */\ntag_36:\n    /* \"#utility.yul\":1467:1468   */\n  0x00\n    /* \"#utility.yul\":1492:1556   */\n  tag_38\n    /* \"#utility.yul\":1548:1555   */\n  dup6\n    /* \"#utility.yul\":1539:1545   */\n  dup3\n    /* \"#utility.yul\":1528:1537   */\n  dup7\n    /* \"#utility.yul\":1524:1546   */\n  add\n    /* \"#utility.yul\":1492:1556   */\n  tag_12\n  jump\t// in\ntag_38:\n    /* \"#utility.yul\":1482:1556   */\n  swap3\n  pop\n    /* \"#utility.yul\":1438:1566   */\n  pop\n    /* \"#utility.yul\":1605:1607   */\n  0x20\n    /* \"#utility.yul\":1631:1695   */\n  tag_39\n    /* \"#utility.yul\":1687:1694   */\n  dup6\n    /* \"#utility.yul\":1678:1684   */\n  dup3\n    /* \"#utility.yul\":1667:1676   */\n  dup7\n    /* \"#utility.yul\":1663:1685   */\n  add\n    /* \"#utility.yul\":1631:1695   */\n  tag_16\n  jump\t// in\ntag_39:\n    /* \"#utility.yul\":1621:1695   */\n  swap2\n  pop\n    /* \"#utility.yul\":1576:1705   */\n  pop\n    /* \"#utility.yul\":1205:1712   */\n  swap3\n  pop\n  swap3\n  swap1\n  pop\n  jump\t// out\n    /* \"Campaign.sol\":439:2258  contract Campaign {... */\ntag_6:\n  dataSize(sub_0)\n  dup1\n  dataOffset(sub_0)\n  0x00\n  codecopy\n  0x00\n  return\nstop\n\nsub_0: assembly {\n        /* \"Campaign.sol\":439:2258  contract Campaign {... */\n      mstore(0x40, 0x80)\n      jumpi(tag_1, lt(calldatasize, 0x04))\n      shr(0xe0, calldataload(0x00))\n      dup1\n      0x8a9cfd55\n      gt\n      tag_9\n      jumpi\n      dup1\n      0x8a9cfd55\n      eq\n      tag_5\n      jumpi\n      dup1\n      0x937e09b1\n      eq\n      tag_6\n      jumpi\n      dup1\n      0xd7bb99ba\n      eq\n      tag_7\n      jumpi\n      dup1\n      0xd7d1bbdb\n      eq\n      tag_8\n      jumpi\n      jump(tag_1)\n    tag_9:\n      dup1\n      0x03441006\n      eq\n      tag_2\n      jumpi\n      dup1\n      0x0a144391\n      eq\n      tag_3\n      jumpi\n      dup1\n      0x481c6a75\n      eq\n      tag_4\n      jumpi\n    tag_1:\n      0x00\n      dup1\n      revert\n        /* \"Campaign.sol\":1937:2235  function finalizeRequest(uint index) public restricted {... */\n    tag_2:\n      callvalue\n      dup1\n      iszero\n      tag_10\n      jumpi\n      0x00\n      dup1\n      revert\n    tag_10:\n      pop\n      tag_11\n      0x04\n      dup1\n      calldatasize\n      sub\n      dup2\n      add\n      swap1\n      tag_12\n      swap2\n      swap1\n      tag_13\n      jump\t// in\n    tag_12:\n      tag_14\n      jump\t// in\n    tag_11:\n      stop\n        /* \"Campaign.sol\":853:894  mapping(address => bool) public approvers */\n    tag_3:\n      callvalue\n      dup1\n      iszero\n      tag_15\n      jumpi\n      0x00\n      dup1\n      revert\n    tag_15:\n      pop\n      tag_16\n      0x04\n      dup1\n      calldatasize\n      sub\n      dup2\n      add\n      swap1\n      tag_17\n      swap2\n      swap1\n      tag_18\n      jump\t// in\n    tag_17:\n      tag_19\n      jump\t// in\n    tag_16:\n      mload(0x40)\n      tag_20\n      swap2\n      swap1\n      tag_21\n      jump\t// in\n    tag_20:\n      mload(0x40)\n      dup1\n      swap2\n      sub\n      swap1\n      return\n        /* \"Campaign.sol\":785:808  address public  manager */\n    tag_4:\n      callvalue\n      dup1\n      iszero\n      tag_22\n      jumpi\n      0x00\n      dup1\n      revert\n    tag_22:\n      pop\n      tag_23\n      tag_24\n      jump\t// in\n    tag_23:\n      mload(0x40)\n      tag_25\n      swap2\n      swap1\n      tag_26\n      jump\t// in\n    tag_25:\n      mload(0x40)\n      dup1\n      swap2\n      sub\n      swap1\n      return\n        /* \"Campaign.sol\":1261:1641  function createRequest(string memory description, uint value, address payable recipient) public restricted {... */\n    tag_5:\n      callvalue\n      dup1\n      iszero\n      tag_27\n      jumpi\n      0x00\n      dup1\n      revert\n    tag_27:\n      pop\n      tag_28\n      0x04\n      dup1\n      calldatasize\n      sub\n      dup2\n      add\n      swap1\n      tag_29\n      swap2\n      swap1\n      tag_30\n      jump\t// in\n    tag_29:\n      tag_31\n      jump\t// in\n    tag_28:\n      stop\n        /* \"Campaign.sol\":815:846  uint public minimumContribution */\n    tag_6:\n      callvalue\n      dup1\n      iszero\n      tag_32\n      jumpi\n      0x00\n      dup1\n      revert\n    tag_32:\n      pop\n      tag_33\n      tag_34\n      jump\t// in\n    tag_33:\n      mload(0x40)\n      tag_35\n      swap2\n      swap1\n      tag_36\n      jump\t// in\n    tag_35:\n      mload(0x40)\n      dup1\n      swap2\n      sub\n      swap1\n      return\n        /* \"Campaign.sol\":1116:1253  function contribute() public payable {... */\n    tag_7:\n      tag_37\n      tag_38\n      jump\t// in\n    tag_37:\n      stop\n        /* \"Campaign.sol\":1649:1929  function approveRequest(uint index) public {... */\n    tag_8:\n      callvalue\n      dup1\n      iszero\n      tag_39\n      jumpi\n      0x00\n      dup1\n      revert\n    tag_39:\n      pop\n      tag_40\n      0x04\n      dup1\n      calldatasize\n      sub\n      dup2\n      add\n      swap1\n      tag_41\n      swap2\n      swap1\n      tag_13\n      jump\t// in\n    tag_41:\n      tag_42\n      jump\t// in\n    tag_40:\n      stop\n        /* \"Campaign.sol\":1937:2235  function finalizeRequest(uint index) public restricted {... */\n    tag_14:\n        /* \"Campaign.sol\":956:963  manager */\n      0x02\n      0x00\n      swap1\n      sload\n      swap1\n      0x0100\n      exp\n      swap1\n      div\n      0xffffffffffffffffffffffffffffffffffffffff\n      and\n        /* \"Campaign.sol\":944:963  msg.sender==manager */\n      0xffffffffffffffffffffffffffffffffffffffff\n      and\n        /* \"Campaign.sol\":944:954  msg.sender */\n      caller\n        /* \"Campaign.sol\":944:963  msg.sender==manager */\n      0xffffffffffffffffffffffffffffffffffffffff\n      and\n      eq\n        /* \"Campaign.sol\":936:964  require(msg.sender==manager) */\n      tag_44\n      jumpi\n      0x00\n      dup1\n      revert\n    tag_44:\n        /* \"Campaign.sol\":2003:2026  Request storage request */\n      0x00\n        /* \"Campaign.sol\":2029:2037  requests */\n      0x01\n        /* \"Campaign.sol\":2029:2044  requests[index] */\n      0x00\n        /* \"Campaign.sol\":2038:2043  index */\n      dup4\n        /* \"Campaign.sol\":2029:2044  requests[index] */\n      dup2\n      mstore\n      0x20\n      add\n      swap1\n      dup2\n      mstore\n      0x20\n      add\n      0x00\n      keccak256\n        /* \"Campaign.sol\":2003:2044  Request storage request = requests[index] */\n      swap1\n      pop\n        /* \"Campaign.sol\":2100:2101  2 */\n      0x02\n        /* \"Campaign.sol\":2088:2099  numRequests */\n      sload(0x00)\n        /* \"Campaign.sol\":2088:2101  numRequests/2 */\n      tag_46\n      swap2\n      swap1\n      tag_47\n      jump\t// in\n    tag_46:\n        /* \"Campaign.sol\":2063:2070  request */\n      dup2\n        /* \"Campaign.sol\":2063:2084  request.approvalCount */\n      0x03\n      add\n      sload\n        /* \"Campaign.sol\":2063:2102  request.approvalCount > (numRequests/2) */\n      gt\n        /* \"Campaign.sol\":2055:2103  require(request.approvalCount > (numRequests/2)) */\n      tag_48\n      jumpi\n      0x00\n      dup1\n      revert\n    tag_48:\n        /* \"Campaign.sol\":2122:2129  request */\n      dup1\n        /* \"Campaign.sol\":2122:2138  request.complete */\n      0x02\n      add\n      0x14\n      swap1\n      sload\n      swap1\n      0x0100\n      exp\n      swap1\n      div\n      0xff\n      and\n        /* \"Campaign.sol\":2114:2139  require(request.complete) */\n      tag_49\n      jumpi\n      0x00\n      dup1\n      revert\n    tag_49:\n        /* \"Campaign.sol\":2152:2159  request */\n      dup1\n        /* \"Campaign.sol\":2152:2169  request.recipient */\n      0x02\n      add\n      0x00\n      swap1\n      sload\n      swap1\n      0x0100\n      exp\n      swap1\n      div\n      0xffffffffffffffffffffffffffffffffffffffff\n      and\n        /* \"Campaign.sol\":2152:2178  request.recipient.transfer */\n      0xffffffffffffffffffffffffffffffffffffffff\n      and\n        /* \"Campaign.sol\":2152:2193  request.recipient.transfer(request.value) */\n      0x08fc\n        /* \"Campaign.sol\":2179:2186  request */\n      dup3\n        /* \"Campaign.sol\":2179:2192  request.value */\n      0x01\n      add\n      sload\n        /* \"Campaign.sol\":2152:2193  request.recipient.transfer(request.value) */\n      swap1\n      dup2\n      iszero\n      mul\n      swap1\n      mload(0x40)\n      0x00\n      mload(0x40)\n      dup1\n      dup4\n      sub\n      dup2\n      dup6\n      dup9\n      dup9\n      call\n      swap4\n      pop\n      pop\n      pop\n      pop\n      iszero\n      dup1\n      iszero\n      tag_51\n      jumpi\n      returndatasize\n      0x00\n      dup1\n      returndatacopy\n      revert(0x00, returndatasize)\n    tag_51:\n      pop\n        /* \"Campaign.sol\":2223:2227  true */\n      0x01\n        /* \"Campaign.sol\":2204:2211  request */\n      dup2\n        /* \"Campaign.sol\":2204:2220  request.complete */\n      0x02\n      add\n      0x14\n        /* \"Campaign.sol\":2204:2227  request.complete = true */\n      0x0100\n      exp\n      dup2\n      sload\n      dup2\n      0xff\n      mul\n      not\n      and\n      swap1\n      dup4\n      iszero\n      iszero\n      mul\n      or\n      swap1\n      sstore\n      pop\n        /* \"Campaign.sol\":1992:2235  {... */\n      pop\n        /* \"Campaign.sol\":1937:2235  function finalizeRequest(uint index) public restricted {... */\n      pop\n      jump\t// out\n        /* \"Campaign.sol\":853:894  mapping(address => bool) public approvers */\n    tag_19:\n      mstore(0x20, 0x04)\n      dup1\n      0x00\n      mstore\n      keccak256(0x00, 0x40)\n      0x00\n      swap2\n      pop\n      sload\n      swap1\n      0x0100\n      exp\n      swap1\n      div\n      0xff\n      and\n      dup2\n      jump\t// out\n        /* \"Campaign.sol\":785:808  address public  manager */\n    tag_24:\n      0x02\n      0x00\n      swap1\n      sload\n      swap1\n      0x0100\n      exp\n      swap1\n      div\n      0xffffffffffffffffffffffffffffffffffffffff\n      and\n      dup2\n      jump\t// out\n        /* \"Campaign.sol\":1261:1641  function createRequest(string memory description, uint value, address payable recipient) public restricted {... */\n    tag_31:\n        /* \"Campaign.sol\":956:963  manager */\n      0x02\n      0x00\n      swap1\n      sload\n      swap1\n      0x0100\n      exp\n      swap1\n      div\n      0xffffffffffffffffffffffffffffffffffffffff\n      and\n        /* \"Campaign.sol\":944:963  msg.sender==manager */\n      0xffffffffffffffffffffffffffffffffffffffff\n      and\n        /* \"Campaign.sol\":944:954  msg.sender */\n      caller\n        /* \"Campaign.sol\":944:963  msg.sender==manager */\n      0xffffffffffffffffffffffffffffffffffffffff\n      and\n      eq\n        /* \"Campaign.sol\":936:964  require(msg.sender==manager) */\n      tag_53\n      jumpi\n      0x00\n      dup1\n      revert\n    tag_53:\n        /* \"Campaign.sol\":1379:1405  Request storage newRequest */\n      0x00\n        /* \"Campaign.sol\":1408:1416  requests */\n      0x01\n        /* \"Campaign.sol\":1408:1431  requests[numRequests++] */\n      0x00\n        /* \"Campaign.sol\":1417:1428  numRequests */\n      dup1\n      0x00\n        /* \"Campaign.sol\":1417:1430  numRequests++ */\n      dup2\n      sload\n      dup1\n      swap3\n      swap2\n      swap1\n      tag_55\n      swap1\n      tag_56\n      jump\t// in\n    tag_55:\n      swap2\n      swap1\n      pop\n      sstore\n        /* \"Campaign.sol\":1408:1431  requests[numRequests++] */\n      dup2\n      mstore\n      0x20\n      add\n      swap1\n      dup2\n      mstore\n      0x20\n      add\n      0x00\n      keccak256\n        /* \"Campaign.sol\":1379:1431  Request storage newRequest = requests[numRequests++] */\n      swap1\n      pop\n        /* \"Campaign.sol\":1467:1478  description */\n      dup4\n        /* \"Campaign.sol\":1442:1452  newRequest */\n      dup2\n        /* \"Campaign.sol\":1442:1464  newRequest.description */\n      0x00\n      add\n        /* \"Campaign.sol\":1442:1478  newRequest.description = description */\n      swap1\n      dup2\n      tag_57\n      swap2\n      swap1\n      tag_58\n      jump\t// in\n    tag_57:\n      pop\n        /* \"Campaign.sol\":1508:1513  value */\n      dup3\n        /* \"Campaign.sol\":1489:1499  newRequest */\n      dup2\n        /* \"Campaign.sol\":1489:1505  newRequest.value */\n      0x01\n      add\n        /* \"Campaign.sol\":1489:1513  newRequest.value = value */\n      dup2\n      swap1\n      sstore\n      pop\n        /* \"Campaign.sol\":1547:1556  recipient */\n      dup2\n        /* \"Campaign.sol\":1524:1534  newRequest */\n      dup2\n        /* \"Campaign.sol\":1524:1544  newRequest.recipient */\n      0x02\n      add\n      0x00\n        /* \"Campaign.sol\":1524:1556  newRequest.recipient = recipient */\n      0x0100\n      exp\n      dup2\n      sload\n      dup2\n      0xffffffffffffffffffffffffffffffffffffffff\n      mul\n      not\n      and\n      swap1\n      dup4\n      0xffffffffffffffffffffffffffffffffffffffff\n      and\n      mul\n      or\n      swap1\n      sstore\n      pop\n        /* \"Campaign.sol\":1589:1594  false */\n      0x00\n        /* \"Campaign.sol\":1567:1577  newRequest */\n      dup2\n        /* \"Campaign.sol\":1567:1586  newRequest.complete */\n      0x02\n      add\n      0x14\n        /* \"Campaign.sol\":1567:1594  newRequest.complete = false */\n      0x0100\n      exp\n      dup2\n      sload\n      dup2\n      0xff\n      mul\n      not\n      and\n      swap1\n      dup4\n      iszero\n      iszero\n      mul\n      or\n      swap1\n      sstore\n      pop\n        /* \"Campaign.sol\":1632:1633  0 */\n      0x00\n        /* \"Campaign.sol\":1605:1615  newRequest */\n      dup2\n        /* \"Campaign.sol\":1605:1629  newRequest.approvalCount */\n      0x03\n      add\n        /* \"Campaign.sol\":1605:1633  newRequest.approvalCount = 0 */\n      dup2\n      swap1\n      sstore\n      pop\n        /* \"Campaign.sol\":1368:1641  {... */\n      pop\n        /* \"Campaign.sol\":1261:1641  function createRequest(string memory description, uint value, address payable recipient) public restricted {... */\n      pop\n      pop\n      pop\n      jump\t// out\n        /* \"Campaign.sol\":815:846  uint public minimumContribution */\n    tag_34:\n      sload(0x03)\n      dup2\n      jump\t// out\n        /* \"Campaign.sol\":1116:1253  function contribute() public payable {... */\n    tag_38:\n        /* \"Campaign.sol\":1184:1203  minimumContribution */\n      sload(0x03)\n        /* \"Campaign.sol\":1172:1181  msg.value */\n      callvalue\n        /* \"Campaign.sol\":1172:1203  msg.value > minimumContribution */\n      gt\n        /* \"Campaign.sol\":1164:1204  require(msg.value > minimumContribution) */\n      tag_60\n      jumpi\n      0x00\n      dup1\n      revert\n    tag_60:\n        /* \"Campaign.sol\":1241:1245  true */\n      0x01\n        /* \"Campaign.sol\":1217:1226  approvers */\n      0x04\n        /* \"Campaign.sol\":1217:1238  approvers[msg.sender] */\n      0x00\n        /* \"Campaign.sol\":1227:1237  msg.sender */\n      caller\n        /* \"Campaign.sol\":1217:1238  approvers[msg.sender] */\n      0xffffffffffffffffffffffffffffffffffffffff\n      and\n      0xffffffffffffffffffffffffffffffffffffffff\n      and\n      dup2\n      mstore\n      0x20\n      add\n      swap1\n      dup2\n      mstore\n      0x20\n      add\n      0x00\n      keccak256\n      0x00\n        /* \"Campaign.sol\":1217:1245  approvers[msg.sender] = true */\n      0x0100\n      exp\n      dup2\n      sload\n      dup2\n      0xff\n      mul\n      not\n      and\n      swap1\n      dup4\n      iszero\n      iszero\n      mul\n      or\n      swap1\n      sstore\n      pop\n        /* \"Campaign.sol\":1116:1253  function contribute() public payable {... */\n      jump\t// out\n        /* \"Campaign.sol\":1649:1929  function approveRequest(uint index) public {... */\n    tag_42:\n        /* \"Campaign.sol\":1703:1726  Request storage request */\n      0x00\n        /* \"Campaign.sol\":1729:1737  requests */\n      0x01\n        /* \"Campaign.sol\":1729:1744  requests[index] */\n      0x00\n        /* \"Campaign.sol\":1738:1743  index */\n      dup4\n        /* \"Campaign.sol\":1729:1744  requests[index] */\n      dup2\n      mstore\n      0x20\n      add\n      swap1\n      dup2\n      mstore\n      0x20\n      add\n      0x00\n      keccak256\n        /* \"Campaign.sol\":1703:1744  Request storage request = requests[index] */\n      swap1\n      pop\n        /* \"Campaign.sol\":1766:1775  approvers */\n      0x04\n        /* \"Campaign.sol\":1766:1787  approvers[msg.sender] */\n      0x00\n        /* \"Campaign.sol\":1776:1786  msg.sender */\n      caller\n        /* \"Campaign.sol\":1766:1787  approvers[msg.sender] */\n      0xffffffffffffffffffffffffffffffffffffffff\n      and\n      0xffffffffffffffffffffffffffffffffffffffff\n      and\n      dup2\n      mstore\n      0x20\n      add\n      swap1\n      dup2\n      mstore\n      0x20\n      add\n      0x00\n      keccak256\n      0x00\n      swap1\n      sload\n      swap1\n      0x0100\n      exp\n      swap1\n      div\n      0xff\n      and\n        /* \"Campaign.sol\":1758:1788  require(approvers[msg.sender]) */\n      tag_62\n      jumpi\n      0x00\n      dup1\n      revert\n    tag_62:\n        /* \"Campaign.sol\":1808:1815  request */\n      dup1\n        /* \"Campaign.sol\":1808:1825  request.approvals */\n      0x04\n      add\n        /* \"Campaign.sol\":1808:1837  request.approvals[msg.sender] */\n      0x00\n        /* \"Campaign.sol\":1826:1836  msg.sender */\n      caller\n        /* \"Campaign.sol\":1808:1837  request.approvals[msg.sender] */\n      0xffffffffffffffffffffffffffffffffffffffff\n      and\n      0xffffffffffffffffffffffffffffffffffffffff\n      and\n      dup2\n      mstore\n      0x20\n      add\n      swap1\n      dup2\n      mstore\n      0x20\n      add\n      0x00\n      keccak256\n      0x00\n      swap1\n      sload\n      swap1\n      0x0100\n      exp\n      swap1\n      div\n      0xff\n      and\n        /* \"Campaign.sol\":1807:1837  !request.approvals[msg.sender] */\n      iszero\n        /* \"Campaign.sol\":1799:1838  require(!request.approvals[msg.sender]) */\n      tag_63\n      jumpi\n      0x00\n      dup1\n      revert\n    tag_63:\n        /* \"Campaign.sol\":1883:1887  true */\n      0x01\n        /* \"Campaign.sol\":1851:1858  request */\n      dup2\n        /* \"Campaign.sol\":1851:1868  request.approvals */\n      0x04\n      add\n        /* \"Campaign.sol\":1851:1880  request.approvals[msg.sender] */\n      0x00\n        /* \"Campaign.sol\":1869:1879  msg.sender */\n      caller\n        /* \"Campaign.sol\":1851:1880  request.approvals[msg.sender] */\n      0xffffffffffffffffffffffffffffffffffffffff\n      and\n      0xffffffffffffffffffffffffffffffffffffffff\n      and\n      dup2\n      mstore\n      0x20\n      add\n      swap1\n      dup2\n      mstore\n      0x20\n      add\n      0x00\n      keccak256\n      0x00\n        /* \"Campaign.sol\":1851:1887  request.approvals[msg.sender] = true */\n      0x0100\n      exp\n      dup2\n      sload\n      dup2\n      0xff\n      mul\n      not\n      and\n      swap1\n      dup4\n      iszero\n      iszero\n      mul\n      or\n      swap1\n      sstore\n      pop\n        /* \"Campaign.sol\":1898:1905  request */\n      dup1\n        /* \"Campaign.sol\":1898:1919  request.approvalCount */\n      0x03\n      add\n      0x00\n        /* \"Campaign.sol\":1898:1921  request.approvalCount++ */\n      dup2\n      sload\n      dup1\n      swap3\n      swap2\n      swap1\n      tag_64\n      swap1\n      tag_56\n      jump\t// in\n    tag_64:\n      swap2\n      swap1\n      pop\n      sstore\n      pop\n        /* \"Campaign.sol\":1692:1929  {... */\n      pop\n        /* \"Campaign.sol\":1649:1929  function approveRequest(uint index) public {... */\n      pop\n      jump\t// out\n        /* \"#utility.yul\":7:82   */\n    tag_65:\n        /* \"#utility.yul\":40:46   */\n      0x00\n        /* \"#utility.yul\":73:75   */\n      0x40\n        /* \"#utility.yul\":67:76   */\n      mload\n        /* \"#utility.yul\":57:76   */\n      swap1\n      pop\n        /* \"#utility.yul\":7:82   */\n      swap1\n      jump\t// out\n        /* \"#utility.yul\":88:205   */\n    tag_66:\n        /* \"#utility.yul\":197:198   */\n      0x00\n        /* \"#utility.yul\":194:195   */\n      dup1\n        /* \"#utility.yul\":187:199   */\n      revert\n        /* \"#utility.yul\":211:328   */\n    tag_67:\n        /* \"#utility.yul\":320:321   */\n      0x00\n        /* \"#utility.yul\":317:318   */\n      dup1\n        /* \"#utility.yul\":310:322   */\n      revert\n        /* \"#utility.yul\":334:411   */\n    tag_68:\n        /* \"#utility.yul\":371:378   */\n      0x00\n        /* \"#utility.yul\":400:405   */\n      dup2\n        /* \"#utility.yul\":389:405   */\n      swap1\n      pop\n        /* \"#utility.yul\":334:411   */\n      swap2\n      swap1\n      pop\n      jump\t// out\n        /* \"#utility.yul\":417:539   */\n    tag_69:\n        /* \"#utility.yul\":490:514   */\n      tag_118\n        /* \"#utility.yul\":508:513   */\n      dup2\n        /* \"#utility.yul\":490:514   */\n      tag_68\n      jump\t// in\n    tag_118:\n        /* \"#utility.yul\":483:488   */\n      dup2\n        /* \"#utility.yul\":480:515   */\n      eq\n        /* \"#utility.yul\":470:533   */\n      tag_119\n      jumpi\n        /* \"#utility.yul\":529:530   */\n      0x00\n        /* \"#utility.yul\":526:527   */\n      dup1\n        /* \"#utility.yul\":519:531   */\n      revert\n        /* \"#utility.yul\":470:533   */\n    tag_119:\n        /* \"#utility.yul\":417:539   */\n      pop\n      jump\t// out\n        /* \"#utility.yul\":545:684   */\n    tag_70:\n        /* \"#utility.yul\":591:596   */\n      0x00\n        /* \"#utility.yul\":629:635   */\n      dup2\n        /* \"#utility.yul\":616:636   */\n      calldataload\n        /* \"#utility.yul\":607:636   */\n      swap1\n      pop\n        /* \"#utility.yul\":645:678   */\n      tag_121\n        /* \"#utility.yul\":672:677   */\n      dup2\n        /* \"#utility.yul\":645:678   */\n      tag_69\n      jump\t// in\n    tag_121:\n        /* \"#utility.yul\":545:684   */\n      swap3\n      swap2\n      pop\n      pop\n      jump\t// out\n        /* \"#utility.yul\":690:1019   */\n    tag_13:\n        /* \"#utility.yul\":749:755   */\n      0x00\n        /* \"#utility.yul\":798:800   */\n      0x20\n        /* \"#utility.yul\":786:795   */\n      dup3\n        /* \"#utility.yul\":777:784   */\n      dup5\n        /* \"#utility.yul\":773:796   */\n      sub\n        /* \"#utility.yul\":769:801   */\n      slt\n        /* \"#utility.yul\":766:885   */\n      iszero\n      tag_123\n      jumpi\n        /* \"#utility.yul\":804:883   */\n      tag_124\n      tag_66\n      jump\t// in\n    tag_124:\n        /* \"#utility.yul\":766:885   */\n    tag_123:\n        /* \"#utility.yul\":924:925   */\n      0x00\n        /* \"#utility.yul\":949:1002   */\n      tag_125\n        /* \"#utility.yul\":994:1001   */\n      dup5\n        /* \"#utility.yul\":985:991   */\n      dup3\n        /* \"#utility.yul\":974:983   */\n      dup6\n        /* \"#utility.yul\":970:992   */\n      add\n        /* \"#utility.yul\":949:1002   */\n      tag_70\n      jump\t// in\n    tag_125:\n        /* \"#utility.yul\":939:1002   */\n      swap2\n      pop\n        /* \"#utility.yul\":895:1012   */\n      pop\n        /* \"#utility.yul\":690:1019   */\n      swap3\n      swap2\n      pop\n      pop\n      jump\t// out\n        /* \"#utility.yul\":1025:1151   */\n    tag_71:\n        /* \"#utility.yul\":1062:1069   */\n      0x00\n        /* \"#utility.yul\":1102:1144   */\n      0xffffffffffffffffffffffffffffffffffffffff\n        /* \"#utility.yul\":1095:1100   */\n      dup3\n        /* \"#utility.yul\":1091:1145   */\n      and\n        /* \"#utility.yul\":1080:1145   */\n      swap1\n      pop\n        /* \"#utility.yul\":1025:1151   */\n      swap2\n      swap1\n      pop\n      jump\t// out\n        /* \"#utility.yul\":1157:1253   */\n    tag_72:\n        /* \"#utility.yul\":1194:1201   */\n      0x00\n        /* \"#utility.yul\":1223:1247   */\n      tag_128\n        /* \"#utility.yul\":1241:1246   */\n      dup3\n        /* \"#utility.yul\":1223:1247   */\n      tag_71\n      jump\t// in\n    tag_128:\n        /* \"#utility.yul\":1212:1247   */\n      swap1\n      pop\n        /* \"#utility.yul\":1157:1253   */\n      swap2\n      swap1\n      pop\n      jump\t// out\n        /* \"#utility.yul\":1259:1381   */\n    tag_73:\n        /* \"#utility.yul\":1332:1356   */\n      tag_130\n        /* \"#utility.yul\":1350:1355   */\n      dup2\n        /* \"#utility.yul\":1332:1356   */\n      tag_72\n      jump\t// in\n    tag_130:\n        /* \"#utility.yul\":1325:1330   */\n      dup2\n        /* \"#utility.yul\":1322:1357   */\n      eq\n        /* \"#utility.yul\":1312:1375   */\n      tag_131\n      jumpi\n        /* \"#utility.yul\":1371:1372   */\n      0x00\n        /* \"#utility.yul\":1368:1369   */\n      dup1\n        /* \"#utility.yul\":1361:1373   */\n      revert\n        /* \"#utility.yul\":1312:1375   */\n    tag_131:\n        /* \"#utility.yul\":1259:1381   */\n      pop\n      jump\t// out\n        /* \"#utility.yul\":1387:1526   */\n    tag_74:\n        /* \"#utility.yul\":1433:1438   */\n      0x00\n        /* \"#utility.yul\":1471:1477   */\n      dup2\n        /* \"#utility.yul\":1458:1478   */\n      calldataload\n        /* \"#utility.yul\":1449:1478   */\n      swap1\n      pop\n        /* \"#utility.yul\":1487:1520   */\n      tag_133\n        /* \"#utility.yul\":1514:1519   */\n      dup2\n        /* \"#utility.yul\":1487:1520   */\n      tag_73\n      jump\t// in\n    tag_133:\n        /* \"#utility.yul\":1387:1526   */\n      swap3\n      swap2\n      pop\n      pop\n      jump\t// out\n        /* \"#utility.yul\":1532:1861   */\n    tag_18:\n        /* \"#utility.yul\":1591:1597   */\n      0x00\n        /* \"#utility.yul\":1640:1642   */\n      0x20\n        /* \"#utility.yul\":1628:1637   */\n      dup3\n        /* \"#utility.yul\":1619:1626   */\n      dup5\n        /* \"#utility.yul\":1615:1638   */\n      sub\n        /* \"#utility.yul\":1611:1643   */\n      slt\n        /* \"#utility.yul\":1608:1727   */\n      iszero\n      tag_135\n      jumpi\n        /* \"#utility.yul\":1646:1725   */\n      tag_136\n      tag_66\n      jump\t// in\n    tag_136:\n        /* \"#utility.yul\":1608:1727   */\n    tag_135:\n        /* \"#utility.yul\":1766:1767   */\n      0x00\n        /* \"#utility.yul\":1791:1844   */\n      tag_137\n        /* \"#utility.yul\":1836:1843   */\n      dup5\n        /* \"#utility.yul\":1827:1833   */\n      dup3\n        /* \"#utility.yul\":1816:1825   */\n      dup6\n        /* \"#utility.yul\":1812:1834   */\n      add\n        /* \"#utility.yul\":1791:1844   */\n      tag_74\n      jump\t// in\n    tag_137:\n        /* \"#utility.yul\":1781:1844   */\n      swap2\n      pop\n        /* \"#utility.yul\":1737:1854   */\n      pop\n        /* \"#utility.yul\":1532:1861   */\n      swap3\n      swap2\n      pop\n      pop\n      jump\t// out\n        /* \"#utility.yul\":1867:1957   */\n    tag_75:\n        /* \"#utility.yul\":1901:1908   */\n      0x00\n        /* \"#utility.yul\":1944:1949   */\n      dup2\n        /* \"#utility.yul\":1937:1950   */\n      iszero\n        /* \"#utility.yul\":1930:1951   */\n      iszero\n        /* \"#utility.yul\":1919:1951   */\n      swap1\n      pop\n        /* \"#utility.yul\":1867:1957   */\n      swap2\n      swap1\n      pop\n      jump\t// out\n        /* \"#utility.yul\":1963:2072   */\n    tag_76:\n        /* \"#utility.yul\":2044:2065   */\n      tag_140\n        /* \"#utility.yul\":2059:2064   */\n      dup2\n        /* \"#utility.yul\":2044:2065   */\n      tag_75\n      jump\t// in\n    tag_140:\n        /* \"#utility.yul\":2039:2042   */\n      dup3\n        /* \"#utility.yul\":2032:2066   */\n      mstore\n        /* \"#utility.yul\":1963:2072   */\n      pop\n      pop\n      jump\t// out\n        /* \"#utility.yul\":2078:2288   */\n    tag_21:\n        /* \"#utility.yul\":2165:2169   */\n      0x00\n        /* \"#utility.yul\":2203:2205   */\n      0x20\n        /* \"#utility.yul\":2192:2201   */\n      dup3\n        /* \"#utility.yul\":2188:2206   */\n      add\n        /* \"#utility.yul\":2180:2206   */\n      swap1\n      pop\n        /* \"#utility.yul\":2216:2281   */\n      tag_142\n        /* \"#utility.yul\":2278:2279   */\n      0x00\n        /* \"#utility.yul\":2267:2276   */\n      dup4\n        /* \"#utility.yul\":2263:2280   */\n      add\n        /* \"#utility.yul\":2254:2260   */\n      dup5\n        /* \"#utility.yul\":2216:2281   */\n      tag_76\n      jump\t// in\n    tag_142:\n        /* \"#utility.yul\":2078:2288   */\n      swap3\n      swap2\n      pop\n      pop\n      jump\t// out\n        /* \"#utility.yul\":2294:2412   */\n    tag_77:\n        /* \"#utility.yul\":2381:2405   */\n      tag_144\n        /* \"#utility.yul\":2399:2404   */\n      dup2\n        /* \"#utility.yul\":2381:2405   */\n      tag_72\n      jump\t// in\n    tag_144:\n        /* \"#utility.yul\":2376:2379   */\n      dup3\n        /* \"#utility.yul\":2369:2406   */\n      mstore\n        /* \"#utility.yul\":2294:2412   */\n      pop\n      pop\n      jump\t// out\n        /* \"#utility.yul\":2418:2640   */\n    tag_26:\n        /* \"#utility.yul\":2511:2515   */\n      0x00\n        /* \"#utility.yul\":2549:2551   */\n      0x20\n        /* \"#utility.yul\":2538:2547   */\n      dup3\n        /* \"#utility.yul\":2534:2552   */\n      add\n        /* \"#utility.yul\":2526:2552   */\n      swap1\n      pop\n        /* \"#utility.yul\":2562:2633   */\n      tag_146\n        /* \"#utility.yul\":2630:2631   */\n      0x00\n        /* \"#utility.yul\":2619:2628   */\n      dup4\n        /* \"#utility.yul\":2615:2632   */\n      add\n        /* \"#utility.yul\":2606:2612   */\n      dup5\n        /* \"#utility.yul\":2562:2633   */\n      tag_77\n      jump\t// in\n    tag_146:\n        /* \"#utility.yul\":2418:2640   */\n      swap3\n      swap2\n      pop\n      pop\n      jump\t// out\n        /* \"#utility.yul\":2646:2763   */\n    tag_78:\n        /* \"#utility.yul\":2755:2756   */\n      0x00\n        /* \"#utility.yul\":2752:2753   */\n      dup1\n        /* \"#utility.yul\":2745:2757   */\n      revert\n        /* \"#utility.yul\":2769:2886   */\n    tag_79:\n        /* \"#utility.yul\":2878:2879   */\n      0x00\n        /* \"#utility.yul\":2875:2876   */\n      dup1\n        /* \"#utility.yul\":2868:2880   */\n      revert\n        /* \"#utility.yul\":2892:2994   */\n    tag_80:\n        /* \"#utility.yul\":2933:2939   */\n      0x00\n        /* \"#utility.yul\":2984:2986   */\n      0x1f\n        /* \"#utility.yul\":2980:2987   */\n      not\n        /* \"#utility.yul\":2975:2977   */\n      0x1f\n        /* \"#utility.yul\":2968:2973   */\n      dup4\n        /* \"#utility.yul\":2964:2978   */\n      add\n        /* \"#utility.yul\":2960:2988   */\n      and\n        /* \"#utility.yul\":2950:2988   */\n      swap1\n      pop\n        /* \"#utility.yul\":2892:2994   */\n      swap2\n      swap1\n      pop\n      jump\t// out\n        /* \"#utility.yul\":3000:3180   */\n    tag_81:\n        /* \"#utility.yul\":3048:3125   */\n      0x4e487b7100000000000000000000000000000000000000000000000000000000\n        /* \"#utility.yul\":3045:3046   */\n      0x00\n        /* \"#utility.yul\":3038:3126   */\n      mstore\n        /* \"#utility.yul\":3145:3149   */\n      0x41\n        /* \"#utility.yul\":3142:3143   */\n      0x04\n        /* \"#utility.yul\":3135:3150   */\n      mstore\n        /* \"#utility.yul\":3169:3173   */\n      0x24\n        /* \"#utility.yul\":3166:3167   */\n      0x00\n        /* \"#utility.yul\":3159:3174   */\n      revert\n        /* \"#utility.yul\":3186:3467   */\n    tag_82:\n        /* \"#utility.yul\":3269:3296   */\n      tag_152\n        /* \"#utility.yul\":3291:3295   */\n      dup3\n        /* \"#utility.yul\":3269:3296   */\n      tag_80\n      jump\t// in\n    tag_152:\n        /* \"#utility.yul\":3261:3267   */\n      dup2\n        /* \"#utility.yul\":3257:3297   */\n      add\n        /* \"#utility.yul\":3399:3405   */\n      dup2\n        /* \"#utility.yul\":3387:3397   */\n      dup2\n        /* \"#utility.yul\":3384:3406   */\n      lt\n        /* \"#utility.yul\":3363:3381   */\n      0xffffffffffffffff\n        /* \"#utility.yul\":3351:3361   */\n      dup3\n        /* \"#utility.yul\":3348:3382   */\n      gt\n        /* \"#utility.yul\":3345:3407   */\n      or\n        /* \"#utility.yul\":3342:3430   */\n      iszero\n      tag_153\n      jumpi\n        /* \"#utility.yul\":3410:3428   */\n      tag_154\n      tag_81\n      jump\t// in\n    tag_154:\n        /* \"#utility.yul\":3342:3430   */\n    tag_153:\n        /* \"#utility.yul\":3450:3460   */\n      dup1\n        /* \"#utility.yul\":3446:3448   */\n      0x40\n        /* \"#utility.yul\":3439:3461   */\n      mstore\n        /* \"#utility.yul\":3229:3467   */\n      pop\n        /* \"#utility.yul\":3186:3467   */\n      pop\n      pop\n      jump\t// out\n        /* \"#utility.yul\":3473:3602   */\n    tag_83:\n        /* \"#utility.yul\":3507:3513   */\n      0x00\n        /* \"#utility.yul\":3534:3554   */\n      tag_156\n      tag_65\n      jump\t// in\n    tag_156:\n        /* \"#utility.yul\":3524:3554   */\n      swap1\n      pop\n        /* \"#utility.yul\":3563:3596   */\n      tag_157\n        /* \"#utility.yul\":3591:3595   */\n      dup3\n        /* \"#utility.yul\":3583:3589   */\n      dup3\n        /* \"#utility.yul\":3563:3596   */\n      tag_82\n      jump\t// in\n    tag_157:\n        /* \"#utility.yul\":3473:3602   */\n      swap2\n      swap1\n      pop\n      jump\t// out\n        /* \"#utility.yul\":3608:3916   */\n    tag_84:\n        /* \"#utility.yul\":3670:3674   */\n      0x00\n        /* \"#utility.yul\":3760:3778   */\n      0xffffffffffffffff\n        /* \"#utility.yul\":3752:3758   */\n      dup3\n        /* \"#utility.yul\":3749:3779   */\n      gt\n        /* \"#utility.yul\":3746:3802   */\n      iszero\n      tag_159\n      jumpi\n        /* \"#utility.yul\":3782:3800   */\n      tag_160\n      tag_81\n      jump\t// in\n    tag_160:\n        /* \"#utility.yul\":3746:3802   */\n    tag_159:\n        /* \"#utility.yul\":3820:3849   */\n      tag_161\n        /* \"#utility.yul\":3842:3848   */\n      dup3\n        /* \"#utility.yul\":3820:3849   */\n      tag_80\n      jump\t// in\n    tag_161:\n        /* \"#utility.yul\":3812:3849   */\n      swap1\n      pop\n        /* \"#utility.yul\":3904:3908   */\n      0x20\n        /* \"#utility.yul\":3898:3902   */\n      dup2\n        /* \"#utility.yul\":3894:3909   */\n      add\n        /* \"#utility.yul\":3886:3909   */\n      swap1\n      pop\n        /* \"#utility.yul\":3608:3916   */\n      swap2\n      swap1\n      pop\n      jump\t// out\n        /* \"#utility.yul\":3922:4068   */\n    tag_85:\n        /* \"#utility.yul\":4019:4025   */\n      dup3\n        /* \"#utility.yul\":4014:4017   */\n      dup2\n        /* \"#utility.yul\":4009:4012   */\n      dup4\n        /* \"#utility.yul\":3996:4026   */\n      calldatacopy\n        /* \"#utility.yul\":4060:4061   */\n      0x00\n        /* \"#utility.yul\":4051:4057   */\n      dup4\n        /* \"#utility.yul\":4046:4049   */\n      dup4\n        /* \"#utility.yul\":4042:4058   */\n      add\n        /* \"#utility.yul\":4035:4062   */\n      mstore\n        /* \"#utility.yul\":3922:4068   */\n      pop\n      pop\n      pop\n      jump\t// out\n        /* \"#utility.yul\":4074:4499   */\n    tag_86:\n        /* \"#utility.yul\":4152:4157   */\n      0x00\n        /* \"#utility.yul\":4177:4243   */\n      tag_164\n        /* \"#utility.yul\":4193:4242   */\n      tag_165\n        /* \"#utility.yul\":4235:4241   */\n      dup5\n        /* \"#utility.yul\":4193:4242   */\n      tag_84\n      jump\t// in\n    tag_165:\n        /* \"#utility.yul\":4177:4243   */\n      tag_83\n      jump\t// in\n    tag_164:\n        /* \"#utility.yul\":4168:4243   */\n      swap1\n      pop\n        /* \"#utility.yul\":4266:4272   */\n      dup3\n        /* \"#utility.yul\":4259:4264   */\n      dup2\n        /* \"#utility.yul\":4252:4273   */\n      mstore\n        /* \"#utility.yul\":4304:4308   */\n      0x20\n        /* \"#utility.yul\":4297:4302   */\n      dup2\n        /* \"#utility.yul\":4293:4309   */\n      add\n        /* \"#utility.yul\":4342:4345   */\n      dup5\n        /* \"#utility.yul\":4333:4339   */\n      dup5\n        /* \"#utility.yul\":4328:4331   */\n      dup5\n        /* \"#utility.yul\":4324:4340   */\n      add\n        /* \"#utility.yul\":4321:4346   */\n      gt\n        /* \"#utility.yul\":4318:4430   */\n      iszero\n      tag_166\n      jumpi\n        /* \"#utility.yul\":4349:4428   */\n      tag_167\n      tag_79\n      jump\t// in\n    tag_167:\n        /* \"#utility.yul\":4318:4430   */\n    tag_166:\n        /* \"#utility.yul\":4439:4493   */\n      tag_168\n        /* \"#utility.yul\":4486:4492   */\n      dup5\n        /* \"#utility.yul\":4481:4484   */\n      dup3\n        /* \"#utility.yul\":4476:4479   */\n      dup6\n        /* \"#utility.yul\":4439:4493   */\n      tag_85\n      jump\t// in\n    tag_168:\n        /* \"#utility.yul\":4158:4499   */\n      pop\n        /* \"#utility.yul\":4074:4499   */\n      swap4\n      swap3\n      pop\n      pop\n      pop\n      jump\t// out\n        /* \"#utility.yul\":4519:4859   */\n    tag_87:\n        /* \"#utility.yul\":4575:4580   */\n      0x00\n        /* \"#utility.yul\":4624:4627   */\n      dup3\n        /* \"#utility.yul\":4617:4621   */\n      0x1f\n        /* \"#utility.yul\":4609:4615   */\n      dup4\n        /* \"#utility.yul\":4605:4622   */\n      add\n        /* \"#utility.yul\":4601:4628   */\n      slt\n        /* \"#utility.yul\":4591:4713   */\n      tag_170\n      jumpi\n        /* \"#utility.yul\":4632:4711   */\n      tag_171\n      tag_78\n      jump\t// in\n    tag_171:\n        /* \"#utility.yul\":4591:4713   */\n    tag_170:\n        /* \"#utility.yul\":4749:4755   */\n      dup2\n        /* \"#utility.yul\":4736:4756   */\n      calldataload\n        /* \"#utility.yul\":4774:4853   */\n      tag_172\n        /* \"#utility.yul\":4849:4852   */\n      dup5\n        /* \"#utility.yul\":4841:4847   */\n      dup3\n        /* \"#utility.yul\":4834:4838   */\n      0x20\n        /* \"#utility.yul\":4826:4832   */\n      dup7\n        /* \"#utility.yul\":4822:4839   */\n      add\n        /* \"#utility.yul\":4774:4853   */\n      tag_86\n      jump\t// in\n    tag_172:\n        /* \"#utility.yul\":4765:4853   */\n      swap2\n      pop\n        /* \"#utility.yul\":4581:4859   */\n      pop\n        /* \"#utility.yul\":4519:4859   */\n      swap3\n      swap2\n      pop\n      pop\n      jump\t// out\n        /* \"#utility.yul\":4865:4969   */\n    tag_88:\n        /* \"#utility.yul\":4910:4917   */\n      0x00\n        /* \"#utility.yul\":4939:4963   */\n      tag_174\n        /* \"#utility.yul\":4957:4962   */\n      dup3\n        /* \"#utility.yul\":4939:4963   */\n      tag_71\n      jump\t// in\n    tag_174:\n        /* \"#utility.yul\":4928:4963   */\n      swap1\n      pop\n        /* \"#utility.yul\":4865:4969   */\n      swap2\n      swap1\n      pop\n      jump\t// out\n        /* \"#utility.yul\":4975:5113   */\n    tag_89:\n        /* \"#utility.yul\":5056:5088   */\n      tag_176\n        /* \"#utility.yul\":5082:5087   */\n      dup2\n        /* \"#utility.yul\":5056:5088   */\n      tag_88\n      jump\t// in\n    tag_176:\n        /* \"#utility.yul\":5049:5054   */\n      dup2\n        /* \"#utility.yul\":5046:5089   */\n      eq\n        /* \"#utility.yul\":5036:5107   */\n      tag_177\n      jumpi\n        /* \"#utility.yul\":5103:5104   */\n      0x00\n        /* \"#utility.yul\":5100:5101   */\n      dup1\n        /* \"#utility.yul\":5093:5105   */\n      revert\n        /* \"#utility.yul\":5036:5107   */\n    tag_177:\n        /* \"#utility.yul\":4975:5113   */\n      pop\n      jump\t// out\n        /* \"#utility.yul\":5119:5274   */\n    tag_90:\n        /* \"#utility.yul\":5173:5178   */\n      0x00\n        /* \"#utility.yul\":5211:5217   */\n      dup2\n        /* \"#utility.yul\":5198:5218   */\n      calldataload\n        /* \"#utility.yul\":5189:5218   */\n      swap1\n      pop\n        /* \"#utility.yul\":5227:5268   */\n      tag_179\n        /* \"#utility.yul\":5262:5267   */\n      dup2\n        /* \"#utility.yul\":5227:5268   */\n      tag_89\n      jump\t// in\n    tag_179:\n        /* \"#utility.yul\":5119:5274   */\n      swap3\n      swap2\n      pop\n      pop\n      jump\t// out\n        /* \"#utility.yul\":5280:6095   */\n    tag_30:\n        /* \"#utility.yul\":5375:5381   */\n      0x00\n        /* \"#utility.yul\":5383:5389   */\n      dup1\n        /* \"#utility.yul\":5391:5397   */\n      0x00\n        /* \"#utility.yul\":5440:5442   */\n      0x60\n        /* \"#utility.yul\":5428:5437   */\n      dup5\n        /* \"#utility.yul\":5419:5426   */\n      dup7\n        /* \"#utility.yul\":5415:5438   */\n      sub\n        /* \"#utility.yul\":5411:5443   */\n      slt\n        /* \"#utility.yul\":5408:5527   */\n      iszero\n      tag_181\n      jumpi\n        /* \"#utility.yul\":5446:5525   */\n      tag_182\n      tag_66\n      jump\t// in\n    tag_182:\n        /* \"#utility.yul\":5408:5527   */\n    tag_181:\n        /* \"#utility.yul\":5594:5595   */\n      0x00\n        /* \"#utility.yul\":5583:5592   */\n      dup5\n        /* \"#utility.yul\":5579:5596   */\n      add\n        /* \"#utility.yul\":5566:5597   */\n      calldataload\n        /* \"#utility.yul\":5624:5642   */\n      0xffffffffffffffff\n        /* \"#utility.yul\":5616:5622   */\n      dup2\n        /* \"#utility.yul\":5613:5643   */\n      gt\n        /* \"#utility.yul\":5610:5727   */\n      iszero\n      tag_183\n      jumpi\n        /* \"#utility.yul\":5646:5725   */\n      tag_184\n      tag_67\n      jump\t// in\n    tag_184:\n        /* \"#utility.yul\":5610:5727   */\n    tag_183:\n        /* \"#utility.yul\":5751:5814   */\n      tag_185\n        /* \"#utility.yul\":5806:5813   */\n      dup7\n        /* \"#utility.yul\":5797:5803   */\n      dup3\n        /* \"#utility.yul\":5786:5795   */\n      dup8\n        /* \"#utility.yul\":5782:5804   */\n      add\n        /* \"#utility.yul\":5751:5814   */\n      tag_87\n      jump\t// in\n    tag_185:\n        /* \"#utility.yul\":5741:5814   */\n      swap4\n      pop\n        /* \"#utility.yul\":5537:5824   */\n      pop\n        /* \"#utility.yul\":5863:5865   */\n      0x20\n        /* \"#utility.yul\":5889:5942   */\n      tag_186\n        /* \"#utility.yul\":5934:5941   */\n      dup7\n        /* \"#utility.yul\":5925:5931   */\n      dup3\n        /* \"#utility.yul\":5914:5923   */\n      dup8\n        /* \"#utility.yul\":5910:5932   */\n      add\n        /* \"#utility.yul\":5889:5942   */\n      tag_70\n      jump\t// in\n    tag_186:\n        /* \"#utility.yul\":5879:5942   */\n      swap3\n      pop\n        /* \"#utility.yul\":5834:5952   */\n      pop\n        /* \"#utility.yul\":5991:5993   */\n      0x40\n        /* \"#utility.yul\":6017:6078   */\n      tag_187\n        /* \"#utility.yul\":6070:6077   */\n      dup7\n        /* \"#utility.yul\":6061:6067   */\n      dup3\n        /* \"#utility.yul\":6050:6059   */\n      dup8\n        /* \"#utility.yul\":6046:6068   */\n      add\n        /* \"#utility.yul\":6017:6078   */\n      tag_90\n      jump\t// in\n    tag_187:\n        /* \"#utility.yul\":6007:6078   */\n      swap2\n      pop\n        /* \"#utility.yul\":5962:6088   */\n      pop\n        /* \"#utility.yul\":5280:6095   */\n      swap3\n      pop\n      swap3\n      pop\n      swap3\n      jump\t// out\n        /* \"#utility.yul\":6101:6219   */\n    tag_91:\n        /* \"#utility.yul\":6188:6212   */\n      tag_189\n        /* \"#utility.yul\":6206:6211   */\n      dup2\n        /* \"#utility.yul\":6188:6212   */\n      tag_68\n      jump\t// in\n    tag_189:\n        /* \"#utility.yul\":6183:6186   */\n      dup3\n        /* \"#utility.yul\":6176:6213   */\n      mstore\n        /* \"#utility.yul\":6101:6219   */\n      pop\n      pop\n      jump\t// out\n        /* \"#utility.yul\":6225:6447   */\n    tag_36:\n        /* \"#utility.yul\":6318:6322   */\n      0x00\n        /* \"#utility.yul\":6356:6358   */\n      0x20\n        /* \"#utility.yul\":6345:6354   */\n      dup3\n        /* \"#utility.yul\":6341:6359   */\n      add\n        /* \"#utility.yul\":6333:6359   */\n      swap1\n      pop\n        /* \"#utility.yul\":6369:6440   */\n      tag_191\n        /* \"#utility.yul\":6437:6438   */\n      0x00\n        /* \"#utility.yul\":6426:6435   */\n      dup4\n        /* \"#utility.yul\":6422:6439   */\n      add\n        /* \"#utility.yul\":6413:6419   */\n      dup5\n        /* \"#utility.yul\":6369:6440   */\n      tag_91\n      jump\t// in\n    tag_191:\n        /* \"#utility.yul\":6225:6447   */\n      swap3\n      swap2\n      pop\n      pop\n      jump\t// out\n        /* \"#utility.yul\":6453:6633   */\n    tag_92:\n        /* \"#utility.yul\":6501:6578   */\n      0x4e487b7100000000000000000000000000000000000000000000000000000000\n        /* \"#utility.yul\":6498:6499   */\n      0x00\n        /* \"#utility.yul\":6491:6579   */\n      mstore\n        /* \"#utility.yul\":6598:6602   */\n      0x12\n        /* \"#utility.yul\":6595:6596   */\n      0x04\n        /* \"#utility.yul\":6588:6603   */\n      mstore\n        /* \"#utility.yul\":6622:6626   */\n      0x24\n        /* \"#utility.yul\":6619:6620   */\n      0x00\n        /* \"#utility.yul\":6612:6627   */\n      revert\n        /* \"#utility.yul\":6639:6819   */\n    tag_93:\n        /* \"#utility.yul\":6687:6764   */\n      0x4e487b7100000000000000000000000000000000000000000000000000000000\n        /* \"#utility.yul\":6684:6685   */\n      0x00\n        /* \"#utility.yul\":6677:6765   */\n      mstore\n        /* \"#utility.yul\":6784:6788   */\n      0x11\n        /* \"#utility.yul\":6781:6782   */\n      0x04\n        /* \"#utility.yul\":6774:6789   */\n      mstore\n        /* \"#utility.yul\":6808:6812   */\n      0x24\n        /* \"#utility.yul\":6805:6806   */\n      0x00\n        /* \"#utility.yul\":6798:6813   */\n      revert\n        /* \"#utility.yul\":6825:7010   */\n    tag_47:\n        /* \"#utility.yul\":6865:6866   */\n      0x00\n        /* \"#utility.yul\":6882:6902   */\n      tag_195\n        /* \"#utility.yul\":6900:6901   */\n      dup3\n        /* \"#utility.yul\":6882:6902   */\n      tag_68\n      jump\t// in\n    tag_195:\n        /* \"#utility.yul\":6877:6902   */\n      swap2\n      pop\n        /* \"#utility.yul\":6916:6936   */\n      tag_196\n        /* \"#utility.yul\":6934:6935   */\n      dup4\n        /* \"#utility.yul\":6916:6936   */\n      tag_68\n      jump\t// in\n    tag_196:\n        /* \"#utility.yul\":6911:6936   */\n      swap3\n      pop\n        /* \"#utility.yul\":6955:6956   */\n      dup3\n        /* \"#utility.yul\":6945:6980   */\n      tag_197\n      jumpi\n        /* \"#utility.yul\":6960:6978   */\n      tag_198\n      tag_92\n      jump\t// in\n    tag_198:\n        /* \"#utility.yul\":6945:6980   */\n    tag_197:\n        /* \"#utility.yul\":7002:7003   */\n      dup3\n        /* \"#utility.yul\":6999:7000   */\n      dup3\n        /* \"#utility.yul\":6995:7004   */\n      div\n        /* \"#utility.yul\":6990:7004   */\n      swap1\n      pop\n        /* \"#utility.yul\":6825:7010   */\n      swap3\n      swap2\n      pop\n      pop\n      jump\t// out\n        /* \"#utility.yul\":7016:7249   */\n    tag_56:\n        /* \"#utility.yul\":7055:7058   */\n      0x00\n        /* \"#utility.yul\":7078:7102   */\n      tag_200\n        /* \"#utility.yul\":7096:7101   */\n      dup3\n        /* \"#utility.yul\":7078:7102   */\n      tag_68\n      jump\t// in\n    tag_200:\n        /* \"#utility.yul\":7069:7102   */\n      swap2\n      pop\n        /* \"#utility.yul\":7124:7190   */\n      0xffffffffffffffffffffffffffffffffffffffffffffffffffffffffffffffff\n        /* \"#utility.yul\":7117:7122   */\n      dup3\n        /* \"#utility.yul\":7114:7191   */\n      sub\n        /* \"#utility.yul\":7111:7214   */\n      tag_201\n      jumpi\n        /* \"#utility.yul\":7194:7212   */\n      tag_202\n      tag_93\n      jump\t// in\n    tag_202:\n        /* \"#utility.yul\":7111:7214   */\n    tag_201:\n        /* \"#utility.yul\":7241:7242   */\n      0x01\n        /* \"#utility.yul\":7234:7239   */\n      dup3\n        /* \"#utility.yul\":7230:7243   */\n      add\n        /* \"#utility.yul\":7223:7243   */\n      swap1\n      pop\n        /* \"#utility.yul\":7016:7249   */\n      swap2\n      swap1\n      pop\n      jump\t// out\n        /* \"#utility.yul\":7255:7354   */\n    tag_94:\n        /* \"#utility.yul\":7307:7313   */\n      0x00\n        /* \"#utility.yul\":7341:7346   */\n      dup2\n        /* \"#utility.yul\":7335:7347   */\n      mload\n        /* \"#utility.yul\":7325:7347   */\n      swap1\n      pop\n        /* \"#utility.yul\":7255:7354   */\n      swap2\n      swap1\n      pop\n      jump\t// out\n        /* \"#utility.yul\":7360:7540   */\n    tag_95:\n        /* \"#utility.yul\":7408:7485   */\n      0x4e487b7100000000000000000000000000000000000000000000000000000000\n        /* \"#utility.yul\":7405:7406   */\n      0x00\n        /* \"#utility.yul\":7398:7486   */\n      mstore\n        /* \"#utility.yul\":7505:7509   */\n      0x22\n        /* \"#utility.yul\":7502:7503   */\n      0x04\n        /* \"#utility.yul\":7495:7510   */\n      mstore\n        /* \"#utility.yul\":7529:7533   */\n      0x24\n        /* \"#utility.yul\":7526:7527   */\n      0x00\n        /* \"#utility.yul\":7519:7534   */\n      revert\n        /* \"#utility.yul\":7546:7866   */\n    tag_96:\n        /* \"#utility.yul\":7590:7596   */\n      0x00\n        /* \"#utility.yul\":7627:7628   */\n      0x02\n        /* \"#utility.yul\":7621:7625   */\n      dup3\n        /* \"#utility.yul\":7617:7629   */\n      div\n        /* \"#utility.yul\":7607:7629   */\n      swap1\n      pop\n        /* \"#utility.yul\":7674:7675   */\n      0x01\n        /* \"#utility.yul\":7668:7672   */\n      dup3\n        /* \"#utility.yul\":7664:7676   */\n      and\n        /* \"#utility.yul\":7695:7713   */\n      dup1\n        /* \"#utility.yul\":7685:7766   */\n      tag_206\n      jumpi\n        /* \"#utility.yul\":7751:7755   */\n      0x7f\n        /* \"#utility.yul\":7743:7749   */\n      dup3\n        /* \"#utility.yul\":7739:7756   */\n      and\n        /* \"#utility.yul\":7729:7756   */\n      swap2\n      pop\n        /* \"#utility.yul\":7685:7766   */\n    tag_206:\n        /* \"#utility.yul\":7813:7815   */\n      0x20\n        /* \"#utility.yul\":7805:7811   */\n      dup3\n        /* \"#utility.yul\":7802:7816   */\n      lt\n        /* \"#utility.yul\":7782:7800   */\n      dup2\n        /* \"#utility.yul\":7779:7817   */\n      sub\n        /* \"#utility.yul\":7776:7860   */\n      tag_207\n      jumpi\n        /* \"#utility.yul\":7832:7850   */\n      tag_208\n      tag_95\n      jump\t// in\n    tag_208:\n        /* \"#utility.yul\":7776:7860   */\n    tag_207:\n        /* \"#utility.yul\":7597:7866   */\n      pop\n        /* \"#utility.yul\":7546:7866   */\n      swap2\n      swap1\n      pop\n      jump\t// out\n        /* \"#utility.yul\":7872:8013   */\n    tag_97:\n        /* \"#utility.yul\":7921:7925   */\n      0x00\n        /* \"#utility.yul\":7944:7947   */\n      dup2\n        /* \"#utility.yul\":7936:7947   */\n      swap1\n      pop\n        /* \"#utility.yul\":7967:7970   */\n      dup2\n        /* \"#utility.yul\":7964:7965   */\n      0x00\n        /* \"#utility.yul\":7957:7971   */\n      mstore\n        /* \"#utility.yul\":8001:8005   */\n      0x20\n        /* \"#utility.yul\":7998:7999   */\n      0x00\n        /* \"#utility.yul\":7988:8006   */\n      keccak256\n        /* \"#utility.yul\":7980:8006   */\n      swap1\n      pop\n        /* \"#utility.yul\":7872:8013   */\n      swap2\n      swap1\n      pop\n      jump\t// out\n        /* \"#utility.yul\":8019:8112   */\n    tag_98:\n        /* \"#utility.yul\":8056:8062   */\n      0x00\n        /* \"#utility.yul\":8103:8105   */\n      0x20\n        /* \"#utility.yul\":8098:8100   */\n      0x1f\n        /* \"#utility.yul\":8091:8096   */\n      dup4\n        /* \"#utility.yul\":8087:8101   */\n      add\n        /* \"#utility.yul\":8083:8106   */\n      div\n        /* \"#utility.yul\":8073:8106   */\n      swap1\n      pop\n        /* \"#utility.yul\":8019:8112   */\n      swap2\n      swap1\n      pop\n      jump\t// out\n        /* \"#utility.yul\":8118:8225   */\n    tag_99:\n        /* \"#utility.yul\":8162:8170   */\n      0x00\n        /* \"#utility.yul\":8212:8217   */\n      dup3\n        /* \"#utility.yul\":8206:8210   */\n      dup3\n        /* \"#utility.yul\":8202:8218   */\n      shl\n        /* \"#utility.yul\":8181:8218   */\n      swap1\n      pop\n        /* \"#utility.yul\":8118:8225   */\n      swap3\n      swap2\n      pop\n      pop\n      jump\t// out\n        /* \"#utility.yul\":8231:8624   */\n    tag_100:\n        /* \"#utility.yul\":8300:8306   */\n      0x00\n        /* \"#utility.yul\":8350:8351   */\n      0x08\n        /* \"#utility.yul\":8338:8348   */\n      dup4\n        /* \"#utility.yul\":8334:8352   */\n      mul\n        /* \"#utility.yul\":8373:8470   */\n      tag_213\n        /* \"#utility.yul\":8403:8469   */\n      0xffffffffffffffffffffffffffffffffffffffffffffffffffffffffffffffff\n        /* \"#utility.yul\":8392:8401   */\n      dup3\n        /* \"#utility.yul\":8373:8470   */\n      tag_99\n      jump\t// in\n    tag_213:\n        /* \"#utility.yul\":8491:8530   */\n      tag_214\n        /* \"#utility.yul\":8521:8529   */\n      dup7\n        /* \"#utility.yul\":8510:8519   */\n      dup4\n        /* \"#utility.yul\":8491:8530   */\n      tag_99\n      jump\t// in\n    tag_214:\n        /* \"#utility.yul\":8479:8530   */\n      swap6\n      pop\n        /* \"#utility.yul\":8563:8567   */\n      dup1\n        /* \"#utility.yul\":8559:8568   */\n      not\n        /* \"#utility.yul\":8552:8557   */\n      dup5\n        /* \"#utility.yul\":8548:8569   */\n      and\n        /* \"#utility.yul\":8539:8569   */\n      swap4\n      pop\n        /* \"#utility.yul\":8612:8616   */\n      dup1\n        /* \"#utility.yul\":8602:8610   */\n      dup7\n        /* \"#utility.yul\":8598:8617   */\n      and\n        /* \"#utility.yul\":8591:8596   */\n      dup5\n        /* \"#utility.yul\":8588:8618   */\n      or\n        /* \"#utility.yul\":8578:8618   */\n      swap3\n      pop\n        /* \"#utility.yul\":8307:8624   */\n      pop\n      pop\n        /* \"#utility.yul\":8231:8624   */\n      swap4\n      swap3\n      pop\n      pop\n      pop\n      jump\t// out\n        /* \"#utility.yul\":8630:8690   */\n    tag_101:\n        /* \"#utility.yul\":8658:8661   */\n      0x00\n        /* \"#utility.yul\":8679:8684   */\n      dup2\n        /* \"#utility.yul\":8672:8684   */\n      swap1\n      pop\n        /* \"#utility.yul\":8630:8690   */\n      swap2\n      swap1\n      pop\n      jump\t// out\n        /* \"#utility.yul\":8696:8838   */\n    tag_102:\n        /* \"#utility.yul\":8746:8755   */\n      0x00\n        /* \"#utility.yul\":8779:8832   */\n      tag_217\n        /* \"#utility.yul\":8797:8831   */\n      tag_218\n        /* \"#utility.yul\":8806:8830   */\n      tag_219\n        /* \"#utility.yul\":8824:8829   */\n      dup5\n        /* \"#utility.yul\":8806:8830   */\n      tag_68\n      jump\t// in\n    tag_219:\n        /* \"#utility.yul\":8797:8831   */\n      tag_101\n      jump\t// in\n    tag_218:\n        /* \"#utility.yul\":8779:8832   */\n      tag_68\n      jump\t// in\n    tag_217:\n        /* \"#utility.yul\":8766:8832   */\n      swap1\n      pop\n        /* \"#utility.yul\":8696:8838   */\n      swap2\n      swap1\n      pop\n      jump\t// out\n        /* \"#utility.yul\":8844:8919   */\n    tag_103:\n        /* \"#utility.yul\":8887:8890   */\n      0x00\n        /* \"#utility.yul\":8908:8913   */\n      dup2\n        /* \"#utility.yul\":8901:8913   */\n      swap1\n      pop\n        /* \"#utility.yul\":8844:8919   */\n      swap2\n      swap1\n      pop\n      jump\t// out\n        /* \"#utility.yul\":8925:9194   */\n    tag_104:\n        /* \"#utility.yul\":9035:9074   */\n      tag_222\n        /* \"#utility.yul\":9066:9073   */\n      dup4\n        /* \"#utility.yul\":9035:9074   */\n      tag_102\n      jump\t// in\n    tag_222:\n        /* \"#utility.yul\":9096:9187   */\n      tag_223\n        /* \"#utility.yul\":9145:9186   */\n      tag_224\n        /* \"#utility.yul\":9169:9185   */\n      dup3\n        /* \"#utility.yul\":9145:9186   */\n      tag_103\n      jump\t// in\n    tag_224:\n        /* \"#utility.yul\":9137:9143   */\n      dup5\n        /* \"#utility.yul\":9130:9134   */\n      dup5\n        /* \"#utility.yul\":9124:9135   */\n      sload\n        /* \"#utility.yul\":9096:9187   */\n      tag_100\n      jump\t// in\n    tag_223:\n        /* \"#utility.yul\":9090:9094   */\n      dup3\n        /* \"#utility.yul\":9083:9188   */\n      sstore\n        /* \"#utility.yul\":9001:9194   */\n      pop\n        /* \"#utility.yul\":8925:9194   */\n      pop\n      pop\n      pop\n      jump\t// out\n        /* \"#utility.yul\":9200:9273   */\n    tag_105:\n        /* \"#utility.yul\":9245:9248   */\n      0x00\n        /* \"#utility.yul\":9200:9273   */\n      swap1\n      jump\t// out\n        /* \"#utility.yul\":9279:9468   */\n    tag_106:\n        /* \"#utility.yul\":9356:9388   */\n      tag_227\n      tag_105\n      jump\t// in\n    tag_227:\n        /* \"#utility.yul\":9397:9462   */\n      tag_228\n        /* \"#utility.yul\":9455:9461   */\n      dup2\n        /* \"#utility.yul\":9447:9453   */\n      dup5\n        /* \"#utility.yul\":9441:9445   */\n      dup5\n        /* \"#utility.yul\":9397:9462   */\n      tag_104\n      jump\t// in\n    tag_228:\n        /* \"#utility.yul\":9332:9468   */\n      pop\n        /* \"#utility.yul\":9279:9468   */\n      pop\n      pop\n      jump\t// out\n        /* \"#utility.yul\":9474:9660   */\n    tag_107:\n        /* \"#utility.yul\":9534:9654   */\n    tag_230:\n        /* \"#utility.yul\":9551:9554   */\n      dup2\n        /* \"#utility.yul\":9544:9549   */\n      dup2\n        /* \"#utility.yul\":9541:9555   */\n      lt\n        /* \"#utility.yul\":9534:9654   */\n      iszero\n      tag_232\n      jumpi\n        /* \"#utility.yul\":9605:9644   */\n      tag_233\n        /* \"#utility.yul\":9642:9643   */\n      0x00\n        /* \"#utility.yul\":9635:9640   */\n      dup3\n        /* \"#utility.yul\":9605:9644   */\n      tag_106\n      jump\t// in\n    tag_233:\n        /* \"#utility.yul\":9578:9579   */\n      0x01\n        /* \"#utility.yul\":9571:9576   */\n      dup2\n        /* \"#utility.yul\":9567:9580   */\n      add\n        /* \"#utility.yul\":9558:9580   */\n      swap1\n      pop\n        /* \"#utility.yul\":9534:9654   */\n      jump(tag_230)\n    tag_232:\n        /* \"#utility.yul\":9474:9660   */\n      pop\n      pop\n      jump\t// out\n        /* \"#utility.yul\":9666:10209   */\n    tag_108:\n        /* \"#utility.yul\":9767:9769   */\n      0x1f\n        /* \"#utility.yul\":9762:9765   */\n      dup3\n        /* \"#utility.yul\":9759:9770   */\n      gt\n        /* \"#utility.yul\":9756:10202   */\n      iszero\n      tag_235\n      jumpi\n        /* \"#utility.yul\":9801:9839   */\n      tag_236\n        /* \"#utility.yul\":9833:9838   */\n      dup2\n        /* \"#utility.yul\":9801:9839   */\n      tag_97\n      jump\t// in\n    tag_236:\n        /* \"#utility.yul\":9885:9914   */\n      tag_237\n        /* \"#utility.yul\":9903:9913   */\n      dup5\n        /* \"#utility.yul\":9885:9914   */\n      tag_98\n      jump\t// in\n    tag_237:\n        /* \"#utility.yul\":9875:9883   */\n      dup2\n        /* \"#utility.yul\":9871:9915   */\n      add\n        /* \"#utility.yul\":10068:10070   */\n      0x20\n        /* \"#utility.yul\":10056:10066   */\n      dup6\n        /* \"#utility.yul\":10053:10071   */\n      lt\n        /* \"#utility.yul\":10050:10099   */\n      iszero\n      tag_238\n      jumpi\n        /* \"#utility.yul\":10089:10097   */\n      dup2\n        /* \"#utility.yul\":10074:10097   */\n      swap1\n      pop\n        /* \"#utility.yul\":10050:10099   */\n    tag_238:\n        /* \"#utility.yul\":10112:10192   */\n      tag_239\n        /* \"#utility.yul\":10168:10190   */\n      tag_240\n        /* \"#utility.yul\":10186:10189   */\n      dup6\n        /* \"#utility.yul\":10168:10190   */\n      tag_98\n      jump\t// in\n    tag_240:\n        /* \"#utility.yul\":10158:10166   */\n      dup4\n        /* \"#utility.yul\":10154:10191   */\n      add\n        /* \"#utility.yul\":10141:10152   */\n      dup3\n        /* \"#utility.yul\":10112:10192   */\n      tag_107\n      jump\t// in\n    tag_239:\n        /* \"#utility.yul\":9771:10202   */\n      pop\n      pop\n        /* \"#utility.yul\":9756:10202   */\n    tag_235:\n        /* \"#utility.yul\":9666:10209   */\n      pop\n      pop\n      pop\n      jump\t// out\n        /* \"#utility.yul\":10215:10332   */\n    tag_109:\n        /* \"#utility.yul\":10269:10277   */\n      0x00\n        /* \"#utility.yul\":10319:10324   */\n      dup3\n        /* \"#utility.yul\":10313:10317   */\n      dup3\n        /* \"#utility.yul\":10309:10325   */\n      shr\n        /* \"#utility.yul\":10288:10325   */\n      swap1\n      pop\n        /* \"#utility.yul\":10215:10332   */\n      swap3\n      swap2\n      pop\n      pop\n      jump\t// out\n        /* \"#utility.yul\":10338:10507   */\n    tag_110:\n        /* \"#utility.yul\":10382:10388   */\n      0x00\n        /* \"#utility.yul\":10415:10466   */\n      tag_243\n        /* \"#utility.yul\":10463:10464   */\n      0x00\n        /* \"#utility.yul\":10459:10465   */\n      not\n        /* \"#utility.yul\":10451:10456   */\n      dup5\n        /* \"#utility.yul\":10448:10449   */\n      0x08\n        /* \"#utility.yul\":10444:10457   */\n      mul\n        /* \"#utility.yul\":10415:10466   */\n      tag_109\n      jump\t// in\n    tag_243:\n        /* \"#utility.yul\":10411:10467   */\n      not\n        /* \"#utility.yul\":10496:10500   */\n      dup1\n        /* \"#utility.yul\":10490:10494   */\n      dup4\n        /* \"#utility.yul\":10486:10501   */\n      and\n        /* \"#utility.yul\":10476:10501   */\n      swap2\n      pop\n        /* \"#utility.yul\":10389:10507   */\n      pop\n        /* \"#utility.yul\":10338:10507   */\n      swap3\n      swap2\n      pop\n      pop\n      jump\t// out\n        /* \"#utility.yul\":10512:10807   */\n    tag_111:\n        /* \"#utility.yul\":10588:10592   */\n      0x00\n        /* \"#utility.yul\":10734:10763   */\n      tag_245\n        /* \"#utility.yul\":10759:10762   */\n      dup4\n        /* \"#utility.yul\":10753:10757   */\n      dup4\n        /* \"#utility.yul\":10734:10763   */\n      tag_110\n      jump\t// in\n    tag_245:\n        /* \"#utility.yul\":10726:10763   */\n      swap2\n      pop\n        /* \"#utility.yul\":10796:10799   */\n      dup3\n        /* \"#utility.yul\":10793:10794   */\n      0x02\n        /* \"#utility.yul\":10789:10800   */\n      mul\n        /* \"#utility.yul\":10783:10787   */\n      dup3\n        /* \"#utility.yul\":10780:10801   */\n      or\n        /* \"#utility.yul\":10772:10801   */\n      swap1\n      pop\n        /* \"#utility.yul\":10512:10807   */\n      swap3\n      swap2\n      pop\n      pop\n      jump\t// out\n        /* \"#utility.yul\":10812:12207   */\n    tag_58:\n        /* \"#utility.yul\":10929:10966   */\n      tag_247\n        /* \"#utility.yul\":10962:10965   */\n      dup3\n        /* \"#utility.yul\":10929:10966   */\n      tag_94\n      jump\t// in\n    tag_247:\n        /* \"#utility.yul\":11031:11049   */\n      0xffffffffffffffff\n        /* \"#utility.yul\":11023:11029   */\n      dup2\n        /* \"#utility.yul\":11020:11050   */\n      gt\n        /* \"#utility.yul\":11017:11073   */\n      iszero\n      tag_248\n      jumpi\n        /* \"#utility.yul\":11053:11071   */\n      tag_249\n      tag_81\n      jump\t// in\n    tag_249:\n        /* \"#utility.yul\":11017:11073   */\n    tag_248:\n        /* \"#utility.yul\":11097:11135   */\n      tag_250\n        /* \"#utility.yul\":11129:11133   */\n      dup3\n        /* \"#utility.yul\":11123:11134   */\n      sload\n        /* \"#utility.yul\":11097:11135   */\n      tag_96\n      jump\t// in\n    tag_250:\n        /* \"#utility.yul\":11182:11249   */\n      tag_251\n        /* \"#utility.yul\":11242:11248   */\n      dup3\n        /* \"#utility.yul\":11234:11240   */\n      dup3\n        /* \"#utility.yul\":11228:11232   */\n      dup6\n        /* \"#utility.yul\":11182:11249   */\n      tag_108\n      jump\t// in\n    tag_251:\n        /* \"#utility.yul\":11276:11277   */\n      0x00\n        /* \"#utility.yul\":11300:11304   */\n      0x20\n        /* \"#utility.yul\":11287:11304   */\n      swap1\n      pop\n        /* \"#utility.yul\":11332:11334   */\n      0x1f\n        /* \"#utility.yul\":11324:11330   */\n      dup4\n        /* \"#utility.yul\":11321:11335   */\n      gt\n        /* \"#utility.yul\":11349:11350   */\n      0x01\n        /* \"#utility.yul\":11344:11962   */\n      dup2\n      eq\n      tag_253\n      jumpi\n        /* \"#utility.yul\":12006:12007   */\n      0x00\n        /* \"#utility.yul\":12023:12029   */\n      dup5\n        /* \"#utility.yul\":12020:12097   */\n      iszero\n      tag_254\n      jumpi\n        /* \"#utility.yul\":12072:12081   */\n      dup3\n        /* \"#utility.yul\":12067:12070   */\n      dup8\n        /* \"#utility.yul\":12063:12082   */\n      add\n        /* \"#utility.yul\":12057:12083   */\n      mload\n        /* \"#utility.yul\":12048:12083   */\n      swap1\n      pop\n        /* \"#utility.yul\":12020:12097   */\n    tag_254:\n        /* \"#utility.yul\":12123:12190   */\n      tag_255\n        /* \"#utility.yul\":12183:12189   */\n      dup6\n        /* \"#utility.yul\":12176:12181   */\n      dup3\n        /* \"#utility.yul\":12123:12190   */\n      tag_111\n      jump\t// in\n    tag_255:\n        /* \"#utility.yul\":12117:12121   */\n      dup7\n        /* \"#utility.yul\":12110:12191   */\n      sstore\n        /* \"#utility.yul\":11979:12201   */\n      pop\n        /* \"#utility.yul\":11314:12201   */\n      jump(tag_252)\n        /* \"#utility.yul\":11344:11962   */\n    tag_253:\n        /* \"#utility.yul\":11396:11400   */\n      0x1f\n        /* \"#utility.yul\":11392:11401   */\n      not\n        /* \"#utility.yul\":11384:11390   */\n      dup5\n        /* \"#utility.yul\":11380:11402   */\n      and\n        /* \"#utility.yul\":11430:11467   */\n      tag_256\n        /* \"#utility.yul\":11462:11466   */\n      dup7\n        /* \"#utility.yul\":11430:11467   */\n      tag_97\n      jump\t// in\n    tag_256:\n        /* \"#utility.yul\":11489:11490   */\n      0x00\n        /* \"#utility.yul\":11503:11711   */\n    tag_257:\n        /* \"#utility.yul\":11517:11524   */\n      dup3\n        /* \"#utility.yul\":11514:11515   */\n      dup2\n        /* \"#utility.yul\":11511:11525   */\n      lt\n        /* \"#utility.yul\":11503:11711   */\n      iszero\n      tag_259\n      jumpi\n        /* \"#utility.yul\":11596:11605   */\n      dup5\n        /* \"#utility.yul\":11591:11594   */\n      dup10\n        /* \"#utility.yul\":11587:11606   */\n      add\n        /* \"#utility.yul\":11581:11607   */\n      mload\n        /* \"#utility.yul\":11573:11579   */\n      dup3\n        /* \"#utility.yul\":11566:11608   */\n      sstore\n        /* \"#utility.yul\":11647:11648   */\n      0x01\n        /* \"#utility.yul\":11639:11645   */\n      dup3\n        /* \"#utility.yul\":11635:11649   */\n      add\n        /* \"#utility.yul\":11625:11649   */\n      swap2\n      pop\n        /* \"#utility.yul\":11694:11696   */\n      0x20\n        /* \"#utility.yul\":11683:11692   */\n      dup6\n        /* \"#utility.yul\":11679:11697   */\n      add\n        /* \"#utility.yul\":11666:11697   */\n      swap5\n      pop\n        /* \"#utility.yul\":11540:11544   */\n      0x20\n        /* \"#utility.yul\":11537:11538   */\n      dup2\n        /* \"#utility.yul\":11533:11545   */\n      add\n        /* \"#utility.yul\":11528:11545   */\n      swap1\n      pop\n        /* \"#utility.yul\":11503:11711   */\n      jump(tag_257)\n    tag_259:\n        /* \"#utility.yul\":11739:11745   */\n      dup7\n        /* \"#utility.yul\":11730:11737   */\n      dup4\n        /* \"#utility.yul\":11727:11746   */\n      lt\n        /* \"#utility.yul\":11724:11903   */\n      iszero\n      tag_260\n      jumpi\n        /* \"#utility.yul\":11797:11806   */\n      dup5\n        /* \"#utility.yul\":11792:11795   */\n      dup10\n        /* \"#utility.yul\":11788:11807   */\n      add\n        /* \"#utility.yul\":11782:11808   */\n      mload\n        /* \"#utility.yul\":11840:11888   */\n      tag_261\n        /* \"#utility.yul\":11882:11886   */\n      0x1f\n        /* \"#utility.yul\":11874:11880   */\n      dup10\n        /* \"#utility.yul\":11870:11887   */\n      and\n        /* \"#utility.yul\":11859:11868   */\n      dup3\n        /* \"#utility.yul\":11840:11888   */\n      tag_110\n      jump\t// in\n    tag_261:\n        /* \"#utility.yul\":11832:11838   */\n      dup4\n        /* \"#utility.yul\":11825:11889   */\n      sstore\n        /* \"#utility.yul\":11747:11903   */\n      pop\n        /* \"#utility.yul\":11724:11903   */\n    tag_260:\n        /* \"#utility.yul\":11949:11950   */\n      0x01\n        /* \"#utility.yul\":11945:11946   */\n      0x02\n        /* \"#utility.yul\":11937:11943   */\n      dup9\n        /* \"#utility.yul\":11933:11947   */\n      mul\n        /* \"#utility.yul\":11929:11951   */\n      add\n        /* \"#utility.yul\":11923:11927   */\n      dup9\n        /* \"#utility.yul\":11916:11952   */\n      sstore\n        /* \"#utility.yul\":11351:11962   */\n      pop\n      pop\n      pop\n        /* \"#utility.yul\":11314:12201   */\n    tag_252:\n      pop\n        /* \"#utility.yul\":10904:12207   */\n      pop\n      pop\n      pop\n        /* \"#utility.yul\":10812:12207   */\n      pop\n      pop\n      jump\t// out\n\n    auxdata: 0xa2646970667358221220e6250cc337ad6d008af280cf4d57fafead138fafc1d964327a598cdd824839d464736f6c63430008100033\n}\n","bytecode":{"linkReferences":{},"object":"60806040523480156200001157600080fd5b5060405162000ec238038062000ec283398181016040528101906200003791906200012c565b80600260006101000a81548173ffffffffffffffffffffffffffffffffffffffff021916908373ffffffffffffffffffffffffffffffffffffffff16021790555081600381905550505062000173565b600080fd5b6000819050919050565b620000a1816200008c565b8114620000ad57600080fd5b50565b600081519050620000c18162000096565b92915050565b600073ffffffffffffffffffffffffffffffffffffffff82169050919050565b6000620000f482620000c7565b9050919050565b6200010681620000e7565b81146200011257600080fd5b50565b6000815190506200012681620000fb565b92915050565b6000806040838503121562000146576200014562000087565b5b60006200015685828601620000b0565b9250506020620001698582860162000115565b9150509250929050565b610d3f80620001836000396000f3fe6080604052600436106100705760003560e01c80638a9cfd551161004e5780638a9cfd5514610106578063937e09b11461012f578063d7bb99ba1461015a578063d7d1bbdb1461016457610070565b806303441006146100755780630a1443911461009e578063481c6a75146100db575b600080fd5b34801561008157600080fd5b5061009c60048036038101906100979190610614565b61018d565b005b3480156100aa57600080fd5b506100c560048036038101906100c0919061069f565b6102c7565b6040516100d291906106e7565b60405180910390f35b3480156100e757600080fd5b506100f06102e7565b6040516100fd9190610711565b60405180910390f35b34801561011257600080fd5b5061012d600480360381019061012891906108b0565b61030d565b005b34801561013b57600080fd5b5061014461041e565b604051610151919061092e565b60405180910390f35b610162610424565b005b34801561017057600080fd5b5061018b60048036038101906101869190610614565b61048c565b005b600260009054906101000a900473ffffffffffffffffffffffffffffffffffffffff1673ffffffffffffffffffffffffffffffffffffffff163373ffffffffffffffffffffffffffffffffffffffff16146101e757600080fd5b6000600160008381526020019081526020016000209050600260005461020d91906109a7565b81600301541161021c57600080fd5b8060020160149054906101000a900460ff1661023757600080fd5b8060020160009054906101000a900473ffffffffffffffffffffffffffffffffffffffff1673ffffffffffffffffffffffffffffffffffffffff166108fc82600101549081150290604051600060405180830381858888f193505050501580156102a5573d6000803e3d6000fd5b5060018160020160146101000a81548160ff0219169083151502179055505050565b60046020528060005260406000206000915054906101000a900460ff1681565b600260009054906101000a900473ffffffffffffffffffffffffffffffffffffffff1681565b600260009054906101000a900473ffffffffffffffffffffffffffffffffffffffff1673ffffffffffffffffffffffffffffffffffffffff163373ffffffffffffffffffffffffffffffffffffffff161461036757600080fd5b60006001600080600081548092919061037f906109d8565b9190505581526020019081526020016000209050838160000190816103a49190610c37565b50828160010181905550818160020160006101000a81548173ffffffffffffffffffffffffffffffffffffffff021916908373ffffffffffffffffffffffffffffffffffffffff16021790555060008160020160146101000a81548160ff0219169083151502179055506000816003018190555050505050565b60035481565b600354341161043257600080fd5b6001600460003373ffffffffffffffffffffffffffffffffffffffff1673ffffffffffffffffffffffffffffffffffffffff16815260200190815260200160002060006101000a81548160ff021916908315150217905550565b6000600160008381526020019081526020016000209050600460003373ffffffffffffffffffffffffffffffffffffffff1673ffffffffffffffffffffffffffffffffffffffff16815260200190815260200160002060009054906101000a900460ff166104f957600080fd5b8060040160003373ffffffffffffffffffffffffffffffffffffffff1673ffffffffffffffffffffffffffffffffffffffff16815260200190815260200160002060009054906101000a900460ff161561055257600080fd5b60018160040160003373ffffffffffffffffffffffffffffffffffffffff1673ffffffffffffffffffffffffffffffffffffffff16815260200190815260200160002060006101000a81548160ff0219169083151502179055508060030160008154809291906105c1906109d8565b91905055505050565b6000604051905090565b600080fd5b600080fd5b6000819050919050565b6105f1816105de565b81146105fc57600080fd5b50565b60008135905061060e816105e8565b92915050565b60006020828403121561062a576106296105d4565b5b6000610638848285016105ff565b91505092915050565b600073ffffffffffffffffffffffffffffffffffffffff82169050919050565b600061066c82610641565b9050919050565b61067c81610661565b811461068757600080fd5b50565b60008135905061069981610673565b92915050565b6000602082840312156106b5576106b46105d4565b5b60006106c38482850161068a565b91505092915050565b60008115159050919050565b6106e1816106cc565b82525050565b60006020820190506106fc60008301846106d8565b92915050565b61070b81610661565b82525050565b60006020820190506107266000830184610702565b92915050565b600080fd5b600080fd5b6000601f19601f8301169050919050565b7f4e487b7100000000000000000000000000000000000000000000000000000000600052604160045260246000fd5b61077f82610736565b810181811067ffffffffffffffff8211171561079e5761079d610747565b5b80604052505050565b60006107b16105ca565b90506107bd8282610776565b919050565b600067ffffffffffffffff8211156107dd576107dc610747565b5b6107e682610736565b9050602081019050919050565b82818337600083830152505050565b6000610815610810846107c2565b6107a7565b90508281526020810184848401111561083157610830610731565b5b61083c8482856107f3565b509392505050565b600082601f8301126108595761085861072c565b5b8135610869848260208601610802565b91505092915050565b600061087d82610641565b9050919050565b61088d81610872565b811461089857600080fd5b50565b6000813590506108aa81610884565b92915050565b6000806000606084860312156108c9576108c86105d4565b5b600084013567ffffffffffffffff8111156108e7576108e66105d9565b5b6108f386828701610844565b9350506020610904868287016105ff565b92505060406109158682870161089b565b9150509250925092565b610928816105de565b82525050565b6000602082019050610943600083018461091f565b92915050565b7f4e487b7100000000000000000000000000000000000000000000000000000000600052601260045260246000fd5b7f4e487b7100000000000000000000000000000000000000000000000000000000600052601160045260246000fd5b60006109b2826105de565b91506109bd836105de565b9250826109cd576109cc610949565b5b828204905092915050565b60006109e3826105de565b91507fffffffffffffffffffffffffffffffffffffffffffffffffffffffffffffffff8203610a1557610a14610978565b5b600182019050919050565b600081519050919050565b7f4e487b7100000000000000000000000000000000000000000000000000000000600052602260045260246000fd5b60006002820490506001821680610a7257607f821691505b602082108103610a8557610a84610a2b565b5b50919050565b60008190508160005260206000209050919050565b60006020601f8301049050919050565b600082821b905092915050565b600060088302610aed7fffffffffffffffffffffffffffffffffffffffffffffffffffffffffffffffff82610ab0565b610af78683610ab0565b95508019841693508086168417925050509392505050565b6000819050919050565b6000610b34610b2f610b2a846105de565b610b0f565b6105de565b9050919050565b6000819050919050565b610b4e83610b19565b610b62610b5a82610b3b565b848454610abd565b825550505050565b600090565b610b77610b6a565b610b82818484610b45565b505050565b5b81811015610ba657610b9b600082610b6f565b600181019050610b88565b5050565b601f821115610beb57610bbc81610a8b565b610bc584610aa0565b81016020851015610bd4578190505b610be8610be085610aa0565b830182610b87565b50505b505050565b600082821c905092915050565b6000610c0e60001984600802610bf0565b1980831691505092915050565b6000610c278383610bfd565b9150826002028217905092915050565b610c4082610a20565b67ffffffffffffffff811115610c5957610c58610747565b5b610c638254610a5a565b610c6e828285610baa565b600060209050601f831160018114610ca15760008415610c8f578287015190505b610c998582610c1b565b865550610d01565b601f198416610caf86610a8b565b60005b82811015610cd757848901518255600182019150602085019450602081019050610cb2565b86831015610cf45784890151610cf0601f891682610bfd565b8355505b6001600288020188555050505b50505050505056fea2646970667358221220e6250cc337ad6d008af280cf4d57fafead138fafc1d964327a598cdd824839d464736f6c63430008100033","opcodes":"PUSH1 0x80 PUSH1 0x40 MSTORE CALLVALUE DUP1 ISZERO PUSH3 0x11 JUMPI PUSH1 0x0 DUP1 REVERT JUMPDEST POP PUSH1 0x40 MLOAD PUSH3 0xEC2 CODESIZE SUB DUP1 PUSH3 0xEC2 DUP4 CODECOPY DUP2 DUP2 ADD PUSH1 0x40 MSTORE DUP2 ADD SWAP1 PUSH3 0x37 SWAP2 SWAP1 PUSH3 0x12C JUMP JUMPDEST DUP1 PUSH1 0x2 PUSH1 0x0 PUSH2 0x100 EXP DUP2 SLOAD DUP2 PUSH20 0xFFFFFFFFFFFFFFFFFFFFFFFFFFFFFFFFFFFFFFFF MUL NOT AND SWAP1 DUP4 PUSH20 0xFFFFFFFFFFFFFFFFFFFFFFFFFFFFFFFFFFFFFFFF AND MUL OR SWAP1 SSTORE POP DUP2 PUSH1 0x3 DUP2 SWAP1 SSTORE POP POP POP PUSH3 0x173 JUMP JUMPDEST PUSH1 0x0 DUP1 REVERT JUMPDEST PUSH1 0x0 DUP2 SWAP1 POP SWAP2 SWAP1 POP JUMP JUMPDEST PUSH3 0xA1 DUP2 PUSH3 0x8C JUMP JUMPDEST DUP2 EQ PUSH3 0xAD JUMPI PUSH1 0x0 DUP1 REVERT JUMPDEST POP JUMP JUMPDEST PUSH1 0x0 DUP2 MLOAD SWAP1 POP PUSH3 0xC1 DUP2 PUSH3 0x96 JUMP JUMPDEST SWAP3 SWAP2 POP POP JUMP JUMPDEST PUSH1 0x0 PUSH20 0xFFFFFFFFFFFFFFFFFFFFFFFFFFFFFFFFFFFFFFFF DUP3 AND SWAP1 POP SWAP2 SWAP1 POP JUMP JUMPDEST PUSH1 0x0 PUSH3 0xF4 DUP3 PUSH3 0xC7 JUMP JUMPDEST SWAP1 POP SWAP2 SWAP1 POP JUMP JUMPDEST PUSH3 0x106 DUP2 PUSH3 0xE7 JUMP JUMPDEST DUP2 EQ PUSH3 0x112 JUMPI PUSH1 0x0 DUP1 REVERT JUMPDEST POP JUMP JUMPDEST PUSH1 0x0 DUP2 MLOAD SWAP1 POP PUSH3 0x126 DUP2 PUSH3 0xFB JUMP JUMPDEST SWAP3 SWAP2 POP POP JUMP JUMPDEST PUSH1 0x0 DUP1 PUSH1 0x40 DUP4 DUP6 SUB SLT ISZERO PUSH3 0x146 JUMPI PUSH3 0x145 PUSH3 0x87 JUMP JUMPDEST JUMPDEST PUSH1 0x0 PUSH3 0x156 DUP6 DUP3 DUP7 ADD PUSH3 0xB0 JUMP JUMPDEST SWAP3 POP POP PUSH1 0x20 PUSH3 0x169 DUP6 DUP3 DUP7 ADD PUSH3 0x115 JUMP JUMPDEST SWAP2 POP POP SWAP3 POP SWAP3 SWAP1 POP JUMP JUMPDEST PUSH2 0xD3F DUP1 PUSH3 0x183 PUSH1 0x0 CODECOPY PUSH1 0x0 RETURN INVALID PUSH1 0x80 PUSH1 0x40 MSTORE PUSH1 0x4 CALLDATASIZE LT PUSH2 0x70 JUMPI PUSH1 0x0 CALLDATALOAD PUSH1 0xE0 SHR DUP1 PUSH4 0x8A9CFD55 GT PUSH2 0x4E JUMPI DUP1 PUSH4 0x8A9CFD55 EQ PUSH2 0x106 JUMPI DUP1 PUSH4 0x937E09B1 EQ PUSH2 0x12F JUMPI DUP1 PUSH4 0xD7BB99BA EQ PUSH2 0x15A JUMPI DUP1 PUSH4 0xD7D1BBDB EQ PUSH2 0x164 JUMPI PUSH2 0x70 JUMP JUMPDEST DUP1 PUSH4 0x3441006 EQ PUSH2 0x75 JUMPI DUP1 PUSH4 0xA144391 EQ PUSH2 0x9E JUMPI DUP1 PUSH4 0x481C6A75 EQ PUSH2 0xDB JUMPI JUMPDEST PUSH1 0x0 DUP1 REVERT JUMPDEST CALLVALUE DUP1 ISZERO PUSH2 0x81 JUMPI PUSH1 0x0 DUP1 REVERT JUMPDEST POP PUSH2 0x9C PUSH1 0x4 DUP1 CALLDATASIZE SUB DUP2 ADD SWAP1 PUSH2 0x97 SWAP2 SWAP1 PUSH2 0x614 JUMP JUMPDEST PUSH2 0x18D JUMP JUMPDEST STOP JUMPDEST CALLVALUE DUP1 ISZERO PUSH2 0xAA JUMPI PUSH1 0x0 DUP1 REVERT JUMPDEST POP PUSH2 0xC5 PUSH1 0x4 DUP1 CALLDATASIZE SUB DUP2 ADD SWAP1 PUSH2 0xC0 SWAP2 SWAP1 PUSH2 0x69F JUMP JUMPDEST PUSH2 0x2C7 JUMP JUMPDEST PUSH1 0x40 MLOAD PUSH2 0xD2 SWAP2 SWAP1 PUSH2 0x6E7 JUMP JUMPDEST PUSH1 0x40 MLOAD DUP1 SWAP2 SUB SWAP1 RETURN JUMPDEST CALLVALUE DUP1 ISZERO PUSH2 0xE7 JUMPI PUSH1 0x0 DUP1 REVERT JUMPDEST POP PUSH2 0xF0 PUSH2 0x2E7 JUMP JUMPDEST PUSH1 0x40 MLOAD PUSH2 0xFD SWAP2 SWAP1 PUSH2 0x711 JUMP JUMPDEST PUSH1 0x40 MLOAD DUP1 SWAP2 SUB SWAP1 RETURN JUMPDEST CALLVALUE DUP1 ISZERO PUSH2 0x112 JUMPI PUSH1 0x0 DUP1 REVERT JUMPDEST POP PUSH2 0x12D PUSH1 0x4 DUP1 CALLDATASIZE SUB DUP2 ADD SWAP1 PUSH2 0x128 SWAP2 SWAP1 PUSH2 0x8B0 JUMP JUMPDEST PUSH2 0x30D JUMP JUMPDEST STOP JUMPDEST CALLVALUE DUP1 ISZERO PUSH2 0x13B JUMPI PUSH1 0x0 DUP1 REVERT JUMPDEST POP PUSH2 0x144 PUSH2 0x41E JUMP JUMPDEST PUSH1 0x40 MLOAD PUSH2 0x151 SWAP2 SWAP1 PUSH2 0x92E JUMP JUMPDEST PUSH1 0x40 MLOAD DUP1 SWAP2 SUB SWAP1 RETURN JUMPDEST PUSH2 0x162 PUSH2 0x424 JUMP JUMPDEST STOP JUMPDEST CALLVALUE DUP1 ISZERO PUSH2 0x170 JUMPI PUSH1 0x0 DUP1 REVERT JUMPDEST POP PUSH2 0x18B PUSH1 0x4 DUP1 CALLDATASIZE SUB DUP2 ADD SWAP1 PUSH2 0x186 SWAP2 SWAP1 PUSH2 0x614 JUMP JUMPDEST PUSH2 0x48C JUMP JUMPDEST STOP JUMPDEST PUSH1 0x2 PUSH1 0x0 SWAP1 SLOAD SWAP1 PUSH2 0x100 EXP SWAP1 DIV PUSH20 0xFFFFFFFFFFFFFFFFFFFFFFFFFFFFFFFFFFFFFFFF AND PUSH20 0xFFFFFFFFFFFFFFFFFFFFFFFFFFFFFFFFFFFFFFFF AND CALLER PUSH20 0xFFFFFFFFFFFFFFFFFFFFFFFFFFFFFFFFFFFFFFFF AND EQ PUSH2 0x1E7 JUMPI PUSH1 0x0 DUP1 REVERT JUMPDEST PUSH1 0x0 PUSH1 0x1 PUSH1 0x0 DUP4 DUP2 MSTORE PUSH1 0x20 ADD SWAP1 DUP2 MSTORE PUSH1 0x20 ADD PUSH1 0x0 KECCAK256 SWAP1 POP PUSH1 0x2 PUSH1 0x0 SLOAD PUSH2 0x20D SWAP2 SWAP1 PUSH2 0x9A7 JUMP JUMPDEST DUP2 PUSH1 0x3 ADD SLOAD GT PUSH2 0x21C JUMPI PUSH1 0x0 DUP1 REVERT JUMPDEST DUP1 PUSH1 0x2 ADD PUSH1 0x14 SWAP1 SLOAD SWAP1 PUSH2 0x100 EXP SWAP1 DIV PUSH1 0xFF AND PUSH2 0x237 JUMPI PUSH1 0x0 DUP1 REVERT JUMPDEST DUP1 PUSH1 0x2 ADD PUSH1 0x0 SWAP1 SLOAD SWAP1 PUSH2 0x100 EXP SWAP1 DIV PUSH20 0xFFFFFFFFFFFFFFFFFFFFFFFFFFFFFFFFFFFFFFFF AND PUSH20 0xFFFFFFFFFFFFFFFFFFFFFFFFFFFFFFFFFFFFFFFF AND PUSH2 0x8FC DUP3 PUSH1 0x1 ADD SLOAD SWAP1 DUP2 ISZERO MUL SWAP1 PUSH1 0x40 MLOAD PUSH1 0x0 PUSH1 0x40 MLOAD DUP1 DUP4 SUB DUP2 DUP6 DUP9 DUP9 CALL SWAP4 POP POP POP POP ISZERO DUP1 ISZERO PUSH2 0x2A5 JUMPI RETURNDATASIZE PUSH1 0x0 DUP1 RETURNDATACOPY RETURNDATASIZE PUSH1 0x0 REVERT JUMPDEST POP PUSH1 0x1 DUP2 PUSH1 0x2 ADD PUSH1 0x14 PUSH2 0x100 EXP DUP2 SLOAD DUP2 PUSH1 0xFF MUL NOT AND SWAP1 DUP4 ISZERO ISZERO MUL OR SWAP1 SSTORE POP POP POP JUMP JUMPDEST PUSH1 0x4 PUSH1 0x20 MSTORE DUP1 PUSH1 0x0 MSTORE PUSH1 0x40 PUSH1 0x0 KECCAK256 PUSH1 0x0 SWAP2 POP SLOAD SWAP1 PUSH2 0x100 EXP SWAP1 DIV PUSH1 0xFF AND DUP2 JUMP JUMPDEST PUSH1 0x2 PUSH1 0x0 SWAP1 SLOAD SWAP1 PUSH2 0x100 EXP SWAP1 DIV PUSH20 0xFFFFFFFFFFFFFFFFFFFFFFFFFFFFFFFFFFFFFFFF AND DUP2 JUMP JUMPDEST PUSH1 0x2 PUSH1 0x0 SWAP1 SLOAD SWAP1 PUSH2 0x100 EXP SWAP1 DIV PUSH20 0xFFFFFFFFFFFFFFFFFFFFFFFFFFFFFFFFFFFFFFFF AND PUSH20 0xFFFFFFFFFFFFFFFFFFFFFFFFFFFFFFFFFFFFFFFF AND CALLER PUSH20 0xFFFFFFFFFFFFFFFFFFFFFFFFFFFFFFFFFFFFFFFF AND EQ PUSH2 0x367 JUMPI PUSH1 0x0 DUP1 REVERT JUMPDEST PUSH1 0x0 PUSH1 0x1 PUSH1 0x0 DUP1 PUSH1 0x0 DUP2 SLOAD DUP1 SWAP3 SWAP2 SWAP1 PUSH2 0x37F SWAP1 PUSH2 0x9D8 JUMP JUMPDEST SWAP2 SWAP1 POP SSTORE DUP2 MSTORE PUSH1 0x20 ADD SWAP1 DUP2 MSTORE PUSH1 0x20 ADD PUSH1 0x0 KECCAK256 SWAP1 POP DUP4 DUP2 PUSH1 0x0 ADD SWAP1 DUP2 PUSH2 0x3A4 SWAP2 SWAP1 PUSH2 0xC37 JUMP JUMPDEST POP DUP3 DUP2 PUSH1 0x1 ADD DUP2 SWAP1 SSTORE POP DUP2 DUP2 PUSH1 0x2 ADD PUSH1 0x0 PUSH2 0x100 EXP DUP2 SLOAD DUP2 PUSH20 0xFFFFFFFFFFFFFFFFFFFFFFFFFFFFFFFFFFFFFFFF MUL NOT AND SWAP1 DUP4 PUSH20 0xFFFFFFFFFFFFFFFFFFFFFFFFFFFFFFFFFFFFFFFF AND MUL OR SWAP1 SSTORE POP PUSH1 0x0 DUP2 PUSH1 0x2 ADD PUSH1 0x14 PUSH2 0x100 EXP DUP2 SLOAD DUP2 PUSH1 0xFF MUL NOT AND SWAP1 DUP4 ISZERO ISZERO MUL OR SWAP1 SSTORE POP PUSH1 0x0 DUP2 PUSH1 0x3 ADD DUP2 SWAP1 SSTORE POP POP POP POP POP JUMP JUMPDEST PUSH1 0x3 SLOAD DUP2 JUMP JUMPDEST PUSH1 0x3 SLOAD CALLVALUE GT PUSH2 0x432 JUMPI PUSH1 0x0 DUP1 REVERT JUMPDEST PUSH1 0x1 PUSH1 0x4 PUSH1 0x0 CALLER PUSH20 0xFFFFFFFFFFFFFFFFFFFFFFFFFFFFFFFFFFFFFFFF AND PUSH20 0xFFFFFFFFFFFFFFFFFFFFFFFFFFFFFFFFFFFFFFFF AND DUP2 MSTORE PUSH1 0x20 ADD SWAP1 DUP2 MSTORE PUSH1 0x20 ADD PUSH1 0x0 KECCAK256 PUSH1 0x0 PUSH2 0x100 EXP DUP2 SLOAD DUP2 PUSH1 0xFF MUL NOT AND SWAP1 DUP4 ISZERO ISZERO MUL OR SWAP1 SSTORE POP JUMP JUMPDEST PUSH1 0x0 PUSH1 0x1 PUSH1 0x0 DUP4 DUP2 MSTORE PUSH1 0x20 ADD SWAP1 DUP2 MSTORE PUSH1 0x20 ADD PUSH1 0x0 KECCAK256 SWAP1 POP PUSH1 0x4 PUSH1 0x0 CALLER PUSH20 0xFFFFFFFFFFFFFFFFFFFFFFFFFFFFFFFFFFFFFFFF AND PUSH20 0xFFFFFFFFFFFFFFFFFFFFFFFFFFFFFFFFFFFFFFFF AND DUP2 MSTORE PUSH1 0x20 ADD SWAP1 DUP2 MSTORE PUSH1 0x20 ADD PUSH1 0x0 KECCAK256 PUSH1 0x0 SWAP1 SLOAD SWAP1 PUSH2 0x100 EXP SWAP1 DIV PUSH1 0xFF AND PUSH2 0x4F9 JUMPI PUSH1 0x0 DUP1 REVERT JUMPDEST DUP1 PUSH1 0x4 ADD PUSH1 0x0 CALLER PUSH20 0xFFFFFFFFFFFFFFFFFFFFFFFFFFFFFFFFFFFFFFFF AND PUSH20 0xFFFFFFFFFFFFFFFFFFFFFFFFFFFFFFFFFFFFFFFF AND DUP2 MSTORE PUSH1 0x20 ADD SWAP1 DUP2 MSTORE PUSH1 0x20 ADD PUSH1 0x0 KECCAK256 PUSH1 0x0 SWAP1 SLOAD SWAP1 PUSH2 0x100 EXP SWAP1 DIV PUSH1 0xFF AND ISZERO PUSH2 0x552 JUMPI PUSH1 0x0 DUP1 REVERT JUMPDEST PUSH1 0x1 DUP2 PUSH1 0x4 ADD PUSH1 0x0 CALLER PUSH20 0xFFFFFFFFFFFFFFFFFFFFFFFFFFFFFFFFFFFFFFFF AND PUSH20 0xFFFFFFFFFFFFFFFFFFFFFFFFFFFFFFFFFFFFFFFF AND DUP2 MSTORE PUSH1 0x20 ADD SWAP1 DUP2 MSTORE PUSH1 0x20 ADD PUSH1 0x0 KECCAK256 PUSH1 0x0 PUSH2 0x100 EXP DUP2 SLOAD DUP2 PUSH1 0xFF MUL NOT AND SWAP1 DUP4 ISZERO ISZERO MUL OR SWAP1 SSTORE POP DUP1 PUSH1 0x3 ADD PUSH1 0x0 DUP2 SLOAD DUP1 SWAP3 SWAP2 SWAP1 PUSH2 0x5C1 SWAP1 PUSH2 0x9D8 JUMP JUMPDEST SWAP2 SWAP1 POP SSTORE POP POP POP JUMP JUMPDEST PUSH1 0x0 PUSH1 0x40 MLOAD SWAP1 POP SWAP1 JUMP JUMPDEST PUSH1 0x0 DUP1 REVERT JUMPDEST PUSH1 0x0 DUP1 REVERT JUMPDEST PUSH1 0x0 DUP2 SWAP1 POP SWAP2 SWAP1 POP JUMP JUMPDEST PUSH2 0x5F1 DUP2 PUSH2 0x5DE JUMP JUMPDEST DUP2 EQ PUSH2 0x5FC JUMPI PUSH1 0x0 DUP1 REVERT JUMPDEST POP JUMP JUMPDEST PUSH1 0x0 DUP2 CALLDATALOAD SWAP1 POP PUSH2 0x60E DUP2 PUSH2 0x5E8 JUMP JUMPDEST SWAP3 SWAP2 POP POP JUMP JUMPDEST PUSH1 0x0 PUSH1 0x20 DUP3 DUP5 SUB SLT ISZERO PUSH2 0x62A JUMPI PUSH2 0x629 PUSH2 0x5D4 JUMP JUMPDEST JUMPDEST PUSH1 0x0 PUSH2 0x638 DUP5 DUP3 DUP6 ADD PUSH2 0x5FF JUMP JUMPDEST SWAP2 POP POP SWAP3 SWAP2 POP POP JUMP JUMPDEST PUSH1 0x0 PUSH20 0xFFFFFFFFFFFFFFFFFFFFFFFFFFFFFFFFFFFFFFFF DUP3 AND SWAP1 POP SWAP2 SWAP1 POP JUMP JUMPDEST PUSH1 0x0 PUSH2 0x66C DUP3 PUSH2 0x641 JUMP JUMPDEST SWAP1 POP SWAP2 SWAP1 POP JUMP JUMPDEST PUSH2 0x67C DUP2 PUSH2 0x661 JUMP JUMPDEST DUP2 EQ PUSH2 0x687 JUMPI PUSH1 0x0 DUP1 REVERT JUMPDEST POP JUMP JUMPDEST PUSH1 0x0 DUP2 CALLDATALOAD SWAP1 POP PUSH2 0x699 DUP2 PUSH2 0x673 JUMP JUMPDEST SWAP3 SWAP2 POP POP JUMP JUMPDEST PUSH1 0x0 PUSH1 0x20 DUP3 DUP5 SUB SLT ISZERO PUSH2 0x6B5 JUMPI PUSH2 0x6B4 PUSH2 0x5D4 JUMP JUMPDEST JUMPDEST PUSH1 0x0 PUSH2 0x6C3 DUP5 DUP3 DUP6 ADD PUSH2 0x68A JUMP JUMPDEST SWAP2 POP POP SWAP3 SWAP2 POP POP JUMP JUMPDEST PUSH1 0x0 DUP2 ISZERO ISZERO SWAP1 POP SWAP2 SWAP1 POP JUMP JUMPDEST PUSH2 0x6E1 DUP2 PUSH2 0x6CC JUMP JUMPDEST DUP3 MSTORE POP POP JUMP JUMPDEST PUSH1 0x0 PUSH1 0x20 DUP3 ADD SWAP1 POP PUSH2 0x6FC PUSH1 0x0 DUP4 ADD DUP5 PUSH2 0x6D8 JUMP JUMPDEST SWAP3 SWAP2 POP POP JUMP JUMPDEST PUSH2 0x70B DUP2 PUSH2 0x661 JUMP JUMPDEST DUP3 MSTORE POP POP JUMP JUMPDEST PUSH1 0x0 PUSH1 0x20 DUP3 ADD SWAP1 POP PUSH2 0x726 PUSH1 0x0 DUP4 ADD DUP5 PUSH2 0x702 JUMP JUMPDEST SWAP3 SWAP2 POP POP JUMP JUMPDEST PUSH1 0x0 DUP1 REVERT JUMPDEST PUSH1 0x0 DUP1 REVERT JUMPDEST PUSH1 0x0 PUSH1 0x1F NOT PUSH1 0x1F DUP4 ADD AND SWAP1 POP SWAP2 SWAP1 POP JUMP JUMPDEST PUSH32 0x4E487B7100000000000000000000000000000000000000000000000000000000 PUSH1 0x0 MSTORE PUSH1 0x41 PUSH1 0x4 MSTORE PUSH1 0x24 PUSH1 0x0 REVERT JUMPDEST PUSH2 0x77F DUP3 PUSH2 0x736 JUMP JUMPDEST DUP2 ADD DUP2 DUP2 LT PUSH8 0xFFFFFFFFFFFFFFFF DUP3 GT OR ISZERO PUSH2 0x79E JUMPI PUSH2 0x79D PUSH2 0x747 JUMP JUMPDEST JUMPDEST DUP1 PUSH1 0x40 MSTORE POP POP POP JUMP JUMPDEST PUSH1 0x0 PUSH2 0x7B1 PUSH2 0x5CA JUMP JUMPDEST SWAP1 POP PUSH2 0x7BD DUP3 DUP3 PUSH2 0x776 JUMP JUMPDEST SWAP2 SWAP1 POP JUMP JUMPDEST PUSH1 0x0 PUSH8 0xFFFFFFFFFFFFFFFF DUP3 GT ISZERO PUSH2 0x7DD JUMPI PUSH2 0x7DC PUSH2 0x747 JUMP JUMPDEST JUMPDEST PUSH2 0x7E6 DUP3 PUSH2 0x736 JUMP JUMPDEST SWAP1 POP PUSH1 0x20 DUP2 ADD SWAP1 POP SWAP2 SWAP1 POP JUMP JUMPDEST DUP3 DUP2 DUP4 CALLDATACOPY PUSH1 0x0 DUP4 DUP4 ADD MSTORE POP POP POP JUMP JUMPDEST PUSH1 0x0 PUSH2 0x815 PUSH2 0x810 DUP5 PUSH2 0x7C2 JUMP JUMPDEST PUSH2 0x7A7 JUMP JUMPDEST SWAP1 POP DUP3 DUP2 MSTORE PUSH1 0x20 DUP2 ADD DUP5 DUP5 DUP5 ADD GT ISZERO PUSH2 0x831 JUMPI PUSH2 0x830 PUSH2 0x731 JUMP JUMPDEST JUMPDEST PUSH2 0x83C DUP5 DUP3 DUP6 PUSH2 0x7F3 JUMP JUMPDEST POP SWAP4 SWAP3 POP POP POP JUMP JUMPDEST PUSH1 0x0 DUP3 PUSH1 0x1F DUP4 ADD SLT PUSH2 0x859 JUMPI PUSH2 0x858 PUSH2 0x72C JUMP JUMPDEST JUMPDEST DUP2 CALLDATALOAD PUSH2 0x869 DUP5 DUP3 PUSH1 0x20 DUP7 ADD PUSH2 0x802 JUMP JUMPDEST SWAP2 POP POP SWAP3 SWAP2 POP POP JUMP JUMPDEST PUSH1 0x0 PUSH2 0x87D DUP3 PUSH2 0x641 JUMP JUMPDEST SWAP1 POP SWAP2 SWAP1 POP JUMP JUMPDEST PUSH2 0x88D DUP2 PUSH2 0x872 JUMP JUMPDEST DUP2 EQ PUSH2 0x898 JUMPI PUSH1 0x0 DUP1 REVERT JUMPDEST POP JUMP JUMPDEST PUSH1 0x0 DUP2 CALLDATALOAD SWAP1 POP PUSH2 0x8AA DUP2 PUSH2 0x884 JUMP JUMPDEST SWAP3 SWAP2 POP POP JUMP JUMPDEST PUSH1 0x0 DUP1 PUSH1 0x0 PUSH1 0x60 DUP5 DUP7 SUB SLT ISZERO PUSH2 0x8C9 JUMPI PUSH2 0x8C8 PUSH2 0x5D4 JUMP JUMPDEST JUMPDEST PUSH1 0x0 DUP5 ADD CALLDATALOAD PUSH8 0xFFFFFFFFFFFFFFFF DUP2 GT ISZERO PUSH2 0x8E7 JUMPI PUSH2 0x8E6 PUSH2 0x5D9 JUMP JUMPDEST JUMPDEST PUSH2 0x8F3 DUP7 DUP3 DUP8 ADD PUSH2 0x844 JUMP JUMPDEST SWAP4 POP POP PUSH1 0x20 PUSH2 0x904 DUP7 DUP3 DUP8 ADD PUSH2 0x5FF JUMP JUMPDEST SWAP3 POP POP PUSH1 0x40 PUSH2 0x915 DUP7 DUP3 DUP8 ADD PUSH2 0x89B JUMP JUMPDEST SWAP2 POP POP SWAP3 POP SWAP3 POP SWAP3 JUMP JUMPDEST PUSH2 0x928 DUP2 PUSH2 0x5DE JUMP JUMPDEST DUP3 MSTORE POP POP JUMP JUMPDEST PUSH1 0x0 PUSH1 0x20 DUP3 ADD SWAP1 POP PUSH2 0x943 PUSH1 0x0 DUP4 ADD DUP5 PUSH2 0x91F JUMP JUMPDEST SWAP3 SWAP2 POP POP JUMP JUMPDEST PUSH32 0x4E487B7100000000000000000000000000000000000000000000000000000000 PUSH1 0x0 MSTORE PUSH1 0x12 PUSH1 0x4 MSTORE PUSH1 0x24 PUSH1 0x0 REVERT JUMPDEST PUSH32 0x4E487B7100000000000000000000000000000000000000000000000000000000 PUSH1 0x0 MSTORE PUSH1 0x11 PUSH1 0x4 MSTORE PUSH1 0x24 PUSH1 0x0 REVERT JUMPDEST PUSH1 0x0 PUSH2 0x9B2 DUP3 PUSH2 0x5DE JUMP JUMPDEST SWAP2 POP PUSH2 0x9BD DUP4 PUSH2 0x5DE JUMP JUMPDEST SWAP3 POP DUP3 PUSH2 0x9CD JUMPI PUSH2 0x9CC PUSH2 0x949 JUMP JUMPDEST JUMPDEST DUP3 DUP3 DIV SWAP1 POP SWAP3 SWAP2 POP POP JUMP JUMPDEST PUSH1 0x0 PUSH2 0x9E3 DUP3 PUSH2 0x5DE JUMP JUMPDEST SWAP2 POP PUSH32 0xFFFFFFFFFFFFFFFFFFFFFFFFFFFFFFFFFFFFFFFFFFFFFFFFFFFFFFFFFFFFFFFF DUP3 SUB PUSH2 0xA15 JUMPI PUSH2 0xA14 PUSH2 0x978 JUMP JUMPDEST JUMPDEST PUSH1 0x1 DUP3 ADD SWAP1 POP SWAP2 SWAP1 POP JUMP JUMPDEST PUSH1 0x0 DUP2 MLOAD SWAP1 POP SWAP2 SWAP1 POP JUMP JUMPDEST PUSH32 0x4E487B7100000000000000000000000000000000000000000000000000000000 PUSH1 0x0 MSTORE PUSH1 0x22 PUSH1 0x4 MSTORE PUSH1 0x24 PUSH1 0x0 REVERT JUMPDEST PUSH1 0x0 PUSH1 0x2 DUP3 DIV SWAP1 POP PUSH1 0x1 DUP3 AND DUP1 PUSH2 0xA72 JUMPI PUSH1 0x7F DUP3 AND SWAP2 POP JUMPDEST PUSH1 0x20 DUP3 LT DUP2 SUB PUSH2 0xA85 JUMPI PUSH2 0xA84 PUSH2 0xA2B JUMP JUMPDEST JUMPDEST POP SWAP2 SWAP1 POP JUMP JUMPDEST PUSH1 0x0 DUP2 SWAP1 POP DUP2 PUSH1 0x0 MSTORE PUSH1 0x20 PUSH1 0x0 KECCAK256 SWAP1 POP SWAP2 SWAP1 POP JUMP JUMPDEST PUSH1 0x0 PUSH1 0x20 PUSH1 0x1F DUP4 ADD DIV SWAP1 POP SWAP2 SWAP1 POP JUMP JUMPDEST PUSH1 0x0 DUP3 DUP3 SHL SWAP1 POP SWAP3 SWAP2 POP POP JUMP JUMPDEST PUSH1 0x0 PUSH1 0x8 DUP4 MUL PUSH2 0xAED PUSH32 0xFFFFFFFFFFFFFFFFFFFFFFFFFFFFFFFFFFFFFFFFFFFFFFFFFFFFFFFFFFFFFFFF DUP3 PUSH2 0xAB0 JUMP JUMPDEST PUSH2 0xAF7 DUP7 DUP4 PUSH2 0xAB0 JUMP JUMPDEST SWAP6 POP DUP1 NOT DUP5 AND SWAP4 POP DUP1 DUP7 AND DUP5 OR SWAP3 POP POP POP SWAP4 SWAP3 POP POP POP JUMP JUMPDEST PUSH1 0x0 DUP2 SWAP1 POP SWAP2 SWAP1 POP JUMP JUMPDEST PUSH1 0x0 PUSH2 0xB34 PUSH2 0xB2F PUSH2 0xB2A DUP5 PUSH2 0x5DE JUMP JUMPDEST PUSH2 0xB0F JUMP JUMPDEST PUSH2 0x5DE JUMP JUMPDEST SWAP1 POP SWAP2 SWAP1 POP JUMP JUMPDEST PUSH1 0x0 DUP2 SWAP1 POP SWAP2 SWAP1 POP JUMP JUMPDEST PUSH2 0xB4E DUP4 PUSH2 0xB19 JUMP JUMPDEST PUSH2 0xB62 PUSH2 0xB5A DUP3 PUSH2 0xB3B JUMP JUMPDEST DUP5 DUP5 SLOAD PUSH2 0xABD JUMP JUMPDEST DUP3 SSTORE POP POP POP POP JUMP JUMPDEST PUSH1 0x0 SWAP1 JUMP JUMPDEST PUSH2 0xB77 PUSH2 0xB6A JUMP JUMPDEST PUSH2 0xB82 DUP2 DUP5 DUP5 PUSH2 0xB45 JUMP JUMPDEST POP POP POP JUMP JUMPDEST JUMPDEST DUP2 DUP2 LT ISZERO PUSH2 0xBA6 JUMPI PUSH2 0xB9B PUSH1 0x0 DUP3 PUSH2 0xB6F JUMP JUMPDEST PUSH1 0x1 DUP2 ADD SWAP1 POP PUSH2 0xB88 JUMP JUMPDEST POP POP JUMP JUMPDEST PUSH1 0x1F DUP3 GT ISZERO PUSH2 0xBEB JUMPI PUSH2 0xBBC DUP2 PUSH2 0xA8B JUMP JUMPDEST PUSH2 0xBC5 DUP5 PUSH2 0xAA0 JUMP JUMPDEST DUP2 ADD PUSH1 0x20 DUP6 LT ISZERO PUSH2 0xBD4 JUMPI DUP2 SWAP1 POP JUMPDEST PUSH2 0xBE8 PUSH2 0xBE0 DUP6 PUSH2 0xAA0 JUMP JUMPDEST DUP4 ADD DUP3 PUSH2 0xB87 JUMP JUMPDEST POP POP JUMPDEST POP POP POP JUMP JUMPDEST PUSH1 0x0 DUP3 DUP3 SHR SWAP1 POP SWAP3 SWAP2 POP POP JUMP JUMPDEST PUSH1 0x0 PUSH2 0xC0E PUSH1 0x0 NOT DUP5 PUSH1 0x8 MUL PUSH2 0xBF0 JUMP JUMPDEST NOT DUP1 DUP4 AND SWAP2 POP POP SWAP3 SWAP2 POP POP JUMP JUMPDEST PUSH1 0x0 PUSH2 0xC27 DUP4 DUP4 PUSH2 0xBFD JUMP JUMPDEST SWAP2 POP DUP3 PUSH1 0x2 MUL DUP3 OR SWAP1 POP SWAP3 SWAP2 POP POP JUMP JUMPDEST PUSH2 0xC40 DUP3 PUSH2 0xA20 JUMP JUMPDEST PUSH8 0xFFFFFFFFFFFFFFFF DUP2 GT ISZERO PUSH2 0xC59 JUMPI PUSH2 0xC58 PUSH2 0x747 JUMP JUMPDEST JUMPDEST PUSH2 0xC63 DUP3 SLOAD PUSH2 0xA5A JUMP JUMPDEST PUSH2 0xC6E DUP3 DUP3 DUP6 PUSH2 0xBAA JUMP JUMPDEST PUSH1 0x0 PUSH1 0x20 SWAP1 POP PUSH1 0x1F DUP4 GT PUSH1 0x1 DUP2 EQ PUSH2 0xCA1 JUMPI PUSH1 0x0 DUP5 ISZERO PUSH2 0xC8F JUMPI DUP3 DUP8 ADD MLOAD SWAP1 POP JUMPDEST PUSH2 0xC99 DUP6 DUP3 PUSH2 0xC1B JUMP JUMPDEST DUP7 SSTORE POP PUSH2 0xD01 JUMP JUMPDEST PUSH1 0x1F NOT DUP5 AND PUSH2 0xCAF DUP7 PUSH2 0xA8B JUMP JUMPDEST PUSH1 0x0 JUMPDEST DUP3 DUP2 LT ISZERO PUSH2 0xCD7 JUMPI DUP5 DUP10 ADD MLOAD DUP3 SSTORE PUSH1 0x1 DUP3 ADD SWAP2 POP PUSH1 0x20 DUP6 ADD SWAP5 POP PUSH1 0x20 DUP2 ADD SWAP1 POP PUSH2 0xCB2 JUMP JUMPDEST DUP7 DUP4 LT ISZERO PUSH2 0xCF4 JUMPI DUP5 DUP10 ADD MLOAD PUSH2 0xCF0 PUSH1 0x1F DUP10 AND DUP3 PUSH2 0xBFD JUMP JUMPDEST DUP4 SSTORE POP JUMPDEST PUSH1 0x1 PUSH1 0x2 DUP9 MUL ADD DUP9 SSTORE POP POP POP JUMPDEST POP POP POP POP POP POP JUMP INVALID LOG2 PUSH5 0x6970667358 0x22 SLT KECCAK256 0xE6 0x25 0xC 0xC3 CALLDATACOPY 0xAD PUSH14 0x8AF280CF4D57FAFEAD138FAFC1 0xD9 PUSH5 0x327A598CDD DUP3 BASEFEE CODECOPY 0xD4 PUSH5 0x736F6C6343 STOP ADDMOD LT STOP CALLER "},"gasEstimates":{"creation":{"codeDepositCost":"678200","executionCost":"infinite","totalCost":"infinite"},"external":{"approveRequest(uint256)":"infinite","approvers(address)":"2868","contribute()":"26642","createRequest(string,uint256,address)":"infinite","finalizeRequest(uint256)":"infinite","manager()":"2559","minimumContribution()":"2451"}},"methodIdentifiers":{"approveRequest(uint256)":"d7d1bbdb","approvers(address)":"0a144391","contribute()":"d7bb99ba","createRequest(string,uint256,address)":"8a9cfd55","finalizeRequest(uint256)":"03441006","manager()":"481c6a75","minimumContribution()":"937e09b1"}},"storageLayout":{"storage":[{"astId":56,"contract":"Campaign.sol:Campaign","label":"numRequests","offset":0,"slot":"0","type":"t_uint256"},{"astId":61,"contract":"Campaign.sol:Campaign","label":"requests","offset":0,"slot":"1","type":"t_mapping(t_uint256,t_struct(Request)54_storage)"},{"astId":63,"contract":"Campaign.sol:Campaign","label":"manager","offset":0,"slot":"2","type":"t_address"},{"astId":65,"contract":"Campaign.sol:Campaign","label":"minimumContribution","offset":0,"slot":"3","type":"t_uint256"},{"astId":69,"contract":"Campaign.sol:Campaign","label":"approvers","offset":0,"slot":"4","type":"t_mapping(t_address,t_bool)"}],"types":{"t_address":{"encoding":"inplace","label":"address","numberOfBytes":"20"},"t_address_payable":{"encoding":"inplace","label":"address payable","numberOfBytes":"20"},"t_bool":{"encoding":"inplace","label":"bool","numberOfBytes":"1"},"t_mapping(t_address,t_bool)":{"encoding":"mapping","key":"t_address","label":"mapping(address => bool)","numberOfBytes":"32","value":"t_bool"},"t_mapping(t_uint256,t_struct(Request)54_storage)":{"encoding":"mapping","key":"t_uint256","label":"mapping(uint256 => struct Campaign.Request)","numberOfBytes":"32","value":"t_struct(Request)54_storage"},"t_string_storage":{"encoding":"bytes","label":"string","numberOfBytes":"32"},"t_struct(Request)54_storage":{"encoding":"inplace","label":"struct Campaign.Request","members":[{"astId":41,"contract":"Campaign.sol:Campaign","label":"description","offset":0,"slot":"0","type":"t_string_storage"},{"astId":43,"contract":"Campaign.sol:Campaign","label":"value","offset":0,"slot":"1","type":"t_uint256"},{"astId":45,"contract":"Campaign.sol:Campaign","label":"recipient","offset":0,"slot":"2","type":"t_address_payable"},{"astId":47,"contract":"Campaign.sol:Campaign","label":"complete","offset":20,"slot":"2","type":"t_bool"},{"astId":49,"contract":"Campaign.sol:Campaign","label":"approvalCount","offset":0,"slot":"3","type":"t_uint256"},{"astId":53,"contract":"Campaign.sol:Campaign","label":"approvals","offset":0,"slot":"4","type":"t_mapping(t_address,t_bool)"}],"numberOfBytes":"160"},"t_uint256":{"encoding":"inplace","label":"uint256","numberOfBytes":"32"}}},"userdoc":{"kind":"user","methods":{},"version":1}}